S00C0000726F6D6C2E737265635E
S3250000004041EA020303439B0730B510D104680B686340136044684B686340536084688B6833
S3250000006063409360C068CB684340D36030BD0023CD5CC45C6C40D4540133102BF8D130BD81
S325000000802DE9F04F8DB04FF001080CAC064604F8208D0D469146114604EB08000D229B464B
S325000000A0199F04F099FA00238DF81E30179B30462946A3F1080A189B22468DE88800534617
S325000000C08DF81F8000F0BAFA10B14FF0FF3028E0189B07EB0A0853448DF81E008DF81F0086
S325000000E08DE80801304629462246082300F0A6FA0028EAD1169B08AC02978DE8080403947B
S32500000100304629464A465B4600F05AF80028DCD120464146082204F04DFA003818BF6FF0EC
S3250000012000000DB0BDE8F08F2DE9F04F8DB04FF0010A0CAC074608AD0E469346114604F8C2
S3250000014020AD0D2204EB0A009946DDF85C8004F043FA0022189B8DF81E208DF81F20169AD7
S3250000016002938DE804010395384631465A464B4600F026F810B14FF0FF301EE00095019546
S32500000180384631462246082300F058FA0028F2D1294608221A9804F01FFA189B3846009388
S325000001A0199B31460193224643468DF81FA000F045FA003818BF6FF000000DB0BDE8F08FC7
S325000001C02DE9F04589B0B3F57F4F80460F461D46DDF840A0119E74D20BB9192300E059239B
S325000001E011460DF101000D2204ACC7F39A078DF80030063704F0F0F9330A8DF80E30404614
S3250000020039466A4623468DF80F6011F0B7F85DB39DF8103083EA15238DF810309DF8113077
S325000002206B408DF8113055440223AA4514D01AF8010B08AA1A440133102B12F8101C80EA79
S32500000240010102F8101CF0D1234640463946224611F094F80023E8E7190705D04046394660
S325000002602246234611F08AF84FEA161A0025129B554503EB05110BD0204601352246FFF776
S32500000280DFFE404639462246234611F077F8EEE7002306F00F02934205D2E05CCD5C68407D
S325000002A0E0540133F7E72AB1404639462246234611F064F813982146082204F08DF900200E
S325000002C001E04FF0FF3009B0BDE8F0852DE9F04F85B005460E9C18468946924600210D2222
S325000002E01E4604F0C9F91E222046002104F0C4F92F88C7F3810307F4407BBBF54070D0F19A
S32500000300000B5BEB000B022B0CBFC7F3C013002303F0FF0203923BB1BBF1000F0CBF18239D
S325000003201E2335F8038001E0DDF80C80039ABBF1000F14BF0623002302B10233109A03F187
S325000003402001304603F1180C116003F116010F9A05EB0C03116005F10A0100F801AB062286
S325000003600293CDF804C004F037F9029BDDF804C0DA79F2719A7932725A7972721A79B27224
S325000003805B78F37215F80C303373B9F1000F0CD1BAF1FF0F02D01AF0100F02D027F4605742
S325000003A005E04CF28F733B4002E027F40067BBB22370A01C1B0A291D6370122204F00CF90C
S325000003C0EB8AB9F1000F02D103F00F0300E00023237504F1160000236375BBF1000F06D0DF
S325000003E0062205F1180104F0F7F804F11C00039B7BB1B9F1000F06D180F8019008F00F085A
S3250000040080F8008005E080F800804FEA182880F8018005B0BDE8F08F2DE9F04192B01D46CA
S3250000042004AB01930AAC074605AB0E469046029306AB28469DF860109DF864200094FFF73A
S3250000044045FF059B06AA00941D44C3EB080301930295039538463146049BFFF711FE0028D0
S3250000046014BF6FF00100002012B0BDE8F08100BF2DE9F04194B01C4606AB01930CAD164645
S3250000048007AB80460F46029308AB20469DF868109DF86C200095FFF719FF079A0095A31819
S325000004A0B21A3444019208AA02930393049440463946069BFFF738FE003818BF6FF00000AA
S325000004C014B0BDE8F08100BF2DE9F0418CB00746129C8846139E1CB104F10F052D0900E094
S325000004E0012529018C4204D11046A4F1100131441CE000221039641A7018A24202F101014C
S3250000050005D010F802E00DF802E00A46F5E70CA80244802002F8300C0A4600210F2A03D8AE
S325000005200DF802100132F9E7184669466A460124FFF786FD002108A8102204F09DF8AC42B6
S3250000054008A80CD2314604AAFFF77AFD404604AA394608AB10F012FF01341036EFE76946FE
S3250000056004AAFFF76DFD404604AA394608AB10F005FF159A08A91498102A28BF102204F0AA
S325000005802BF80CB0BDE8F081DB0070B5C8B05C09054606340E460CA811461A4611F066F9DF
S325000005A020460CA904AA08AB00F00EF84C9B0CA9009604AA02934D9B0195039308AB204621
S325000005C0FFF782FF48B070BD7FB5064614460846184A1D4631466B4610F0D0FE0F22002342
S325000005E01DF8021043EA4103A35412F1FF324FEAD113F5D29DF90030002B04DA20460E49C2
S325000006002246FFF71DFD0F220023A15C43EA4103AB54A35C12F1FF324FEAD313F5D294F9F5
S325000006200030002B04DA284603492A46FFF708FD04B070BD188A0900088A0900B3F5801FE8
S325000006402DE9F04F89B082468B461C4646D8CBF39A0B0DF1100811460BF1060B4046102258
S32500000660260903F0B9FF00254746DDF84C80129BB5424FEA0519C844994418D06B46504634
S3250000068059463A4610F07AFE484669464246FFF7D7FC9DF81F300133DBB28DF81F3023B9DA
S325000006A09DF81E3001338DF81E300135DDE714F00F0401D1002013E06B4604AA50465946C0
S325000006C010F05CFE002319F803201DF803104A4008F803200133A342F5D1EBE74FF0FF306F
S325000006E009B0BDE8F08F00BF70B5BCB0C4001546684622461E4611F0B9F86109684606312D
S325000007002A46334610F03AFE3CB070BD2DE9F04FADF52D7D1D4620F00803102B03D0202824
S3250000072001D001246CE0B2F5C47FFAD812F00708F7D1C700A2F108063A460EA806AC10F08C
S32500000740D1FF29460822204603F046FF4FEAD6094AA8324605F1080103F03EFF05235FFA5A
S3250000076089FB03FB0BF37F090637DBB2029704934AAB062703EBC9030393049B09F1FF3532
S325000007804FF0000A4344DBB2013305936B1CAAF1080A22D0059A08A8DDF80CC0E379D444A0
S325000007A02A44013D614653400822E371CDF804C003F012FF02990AAB22460EA810F024FCB4
S325000007C008220AA9204603F007FFDDF804C00CA90822604603F000FFD8E7013FCBEB080802
S325000007E05FFA88F8C9D1094906A8082203F0E2FE0446002895D1B6984AA9324603F0ECFE15
S3250000080020460DF52D7DBDE8F08F00BF288A09002DE9F04FADF5277D1E4620F00803102BCD
S32500000820144601D0202859D1B4F5C07F56D814F0070753D14FEAC00A0AA8524646AD11F088
S3250000084015F8294902A8082203F0C6FE4FEAD40831465FFA88FB284622464FEA5A1A03F0AA
S32500000860BBFE06260AF1060AAC460025454523DA0CEBC50904A849460822CDF804C003F03E
S32500000880ABFE514606AB0AA802AA10F077FD082208A9484603F0A0FE082202A806A903F01F
S325000008A09BFE9DF80F207B1C2B44013553408DF80F30DDF804C0D9E7013E5F44FFB2D4D1B1
S325000008C0082202A9B09803F087FEB09B46A9224603F1080003F080FE304600E001200DF5F5
S325000008E0277DBDE8F08F00BF288A090008B50A46D0F89830D0F8880009B9203002E00129A5
S3250000090003D1403053F8200008BD0349034803F0D7FE002008BD00BFD9350A0069350A009A
S3250000092010B5D0F88840D0F89830103453F8244040F627039C4205D109490A4803F0C0FE70
S32500000940002010BDD0F8903001B932B1D3F8080420EA01010A43C3F80824D3F8080410BDC4
S32500000960CA350A00A1350A0073B5D0F890400E46D4F80038D90728D41F25D4F8043893B9FC
S325000009800120C4F80008D4F800380193019BA0F0F3FDC4F80864D4F808340A200193019B2E
S325000009A0A0F0EAFD11E0013D03D00A20A0F0E4FDE3E740F2E935D4F80438002BE0D0013DE2
S325000009C0DED00A20A0F0D8FDF5E702B070BD00BFF8B5D0F888501646D0F8983005F1A00289
S325000009E0044653F822300F465BB1294600F09AF820463946324600F0A9F82046294600F005
S32500000A008DF8204639463246BDE8F84000F09EB810B5D0F88840D0F89830103453F82440F3
S32500000A2040F627039C4205D109490A4803F048FE002010BDD0F8903001B932B1D3F80005DD
S32500000A4020EA01010A43C3F80025D3F8000510BDD6340A00A1350A000F2970B5049CD0F801
S32500000A60980013D850F8215000EB81061DB9D6F8805040F8215050F8211003B924B18858BB
S32500000A8020EA03031C438C50885870BD002070BDD0F89820D0F8883002EB830393F8031397
S32500000AA000F08EB970B5D0F88850D0F89830044605F1100253F8222040F627039A420CD1AC
S32500000AC0002100F02BF8204600F00EF806462946204600F023F8304670BDD0F89030D3F85E
S32500000AE0000100F01F0070BDD0F89030D3F80001C0F30420704700BFD0F89030D3F8082493
S32500000B0002F00302012A06D1D3F8000880F0010000F0010070470020704700BF002200F042
S32500000B20A5B800BF012200F0A1B800BF10B5D0F89000890802B933B150F8214024EA020260
S32500000B40134340F8213050F8210010BD2DE9F743064688461746D0F89890D0F890401F25E7
S32500000B60D4F8043801932BB1013D03D00A20A0F003FDF5E7019B23B1019A3748374903F053
S32500000B809FFD0123C4F800380A201F25A0F0F4FCD4F804382BB1013D03D00A20A0F0ECFC16
S32500000BA0F6E71F2547F0030747EA0807C4F80874D4F808340193019BD4F8043801932BB1A5
S32500000BC0013D03D00A20A0F0D7FCF5E7019B23B1019A2348214903F073FD0A25D4F800381F
S32500000BE00BB3013D20D01F27D4F8043801932BB1013F03D00A20A0F0BFFCF5E7019B23B171
S32500000C00019A1848154903F05BFD1F270023C4F80038D4F80438002BE0D0013FDED00A20D2
S32500000C20A0F0AAFCF5E745B9D6F888300E480B49103359F8232003F043FD012048F0010307
S32500000C40C4F80834D4F808340193019BA0F094FC03B0BDE8F08300BFE5340A00C7340A008C
S32500000C6003350A0021350A003E350A00D0F88C30F0B5102B28BF10239942D0F8984028D25C
S32500000C8004EB810354F82170D3F880C0D3F80062D3F880520FB944F821C054F82140C0F8DF
S32500000CA08440D3F8C07117B90EB1C3F8C061D3F8406216B90DB1C3F8405212B1D3F84032BC
S32500000CC001E0D3F8C031C0F89030C0F888102046F0BD0020F0BD00BF704700BF2DE9F04747
S32500000CE00AAE92460122134607460D4696E8400300F04EF8044600F00603042B08D1C0F34D
S32500000D000323534504D1089B00F0C0029A4205D02B680020043B2B60BDE8F087099A20F4E4
S32500000D207F6323F00F03136010F0080307D0002238462946134600F02BF8306000E03360D3
S32500000D40002604F03003302BC9F8006016D1324633463846294600F01BF8020720F47F63FD
S32500000D6023F00F03C8F800300FD5384629463246334600F00DF8C9F8000006E01B094FF493
S32500000D80805202FA03F3C8F800302046BDE8F0872DE9E04380460E4617469946404613F0FF
S32500000DA0ABFC356855F8040B35603FB1C307F5D50F2803D000EA07034B45EFD1BDE8E0831E
S32500000DC00846704708B560B1002907DB436802681944914204DD034803F072FC002008BD78
S32500000DE0012008BDE6350A0038B50D4602210446FFF7E8FF50B16368A2680220D15C1A44D5
S32500000E000233527842EA01222A80636038BD00BF38B50D4601210446FFF7D4FF30B163683C
S32500000E20A2680120591C6160D35C2B7038BD00BF70B504460D461646FFF7C4FF50B163682A
S32500000E40A168304619442A4603F0C6FB636828462B44636070BD00BF00230160436082602C
S32500000E600120704738B50D4602210446FFF7AAFF50B16368A2680220D118D25C0233497843
S32500000E8042EA01222A80636038BD00BF2DE9F74389460DF10601044690461D460A9EFFF797
S32500000EA0E1FF18B9244803F00BFC0FE027686068BDF80610874204DD381A814208DD024618
S32500000EC001E029B100221D4803F0FAFB00202FE020464946FFF79CFF0028E3D02046414665
S32500000EE0FFF796FF0028DDD02DB120462946FFF78FFF0028D6D02EB120463146FFF788FF4E
S32500000F000028CFD0BDF80630002D0CBF02250325002E0CBF1E465E1E751B0B9BADB2A2685A
S32500000F201D8063680120D1180C9A1D441160656003B0BDE8F08300BF05360A0013360A00DA
S32500000F40704700BF2DE9F04786B0002604460D46084610220021B04603F08EFB4DF6DD5A42
S32500000F602368984536DAC4F80480C8EB0308B8F1030F2FDD20460DF10601FFF773FF2046F5
S32500000F8002A9FFF76FFF94E80C00BDF808709A42CCBFC3EB0202002297421BDCBDF80610B1
S32500000FA003EB07085145A268DAD102EB030903A839464A46FFF750FF03A80DF10A0100F047
S32500000FC027F818B1AF60C5F80C9001E085E880020136C5E716B12846FFF7B2FF304606B000
S32500000FE0BDE8F08730B585B00C46054608220846002103F041FB0023A21C0192221D029209
S32500001000621C009328462146FFF740FF05B030BD37B501AA0D4603210446FFF709FF28B1DE
S325000010200F4901A8032203F0C5FA20B10D4803F047FB002011E020460DF10301FFF7E8FE22
S325000010400028F3D09DF80330092BEFD120462946FFF708FF0028E9D0012003B030BD00BFB0
S3250000106032360A0005360A0037B50D460DF106010446FFF7CDFE18B19DF806306C2B04D065
S325000010800C4803F01DFB002011E020460DF10701FFF7BEFE0028F3D09DF80730022BEFD118
S325000010A02046294600F022F90028E9D0012003B030BD00BF05360A0070B504460D46164686
S325000010C0FFF7D0FE20B90B4803F0FAFA002070BD94E8090029889842CCBFC3EB000000207D
S325000010E08842F0DBA06818440B4430606360012070BD00BF05360A00704700BF38B505464F
S32500001100202208460C46002103F0B6FA95E80C009A4202DDD31A022B03DC354803F0D0FAAC
S3250000112063E021462846FFF773FE2846611CFFF76FFE2846A11CFFF76BFE2378042B54D163
S3250000114063780A3B032B50D8DFE803F0020E4A272846211DFFF788FF0028DED0284604F176
S32500001160100104F1140237E02846211DFFF77AFE0028D2D02846A11DFFF774FE0028CCD0FA
S32500001180284604F10801FFF76FFF0028C5D0284604F1140104F118021EE02846211DFFF795
S325000011A061FE0028B9D02846A11DFFF731FE0028B3D0284604F10801FFF754FE0028ACD0C5
S325000011C0284604F10C01FFF74FFF0028A5D0284604F1180104F11C02FFF76EFF00289CD032
S325000011E02046FFF789FF012038BD002038BD00BF05360A00704700BF2DE9F7434FF00008C9
S3250000120006460D46084660220021C14603F034FA3368994545DAC6F80490C9EB0309B9F1BC
S32500001220010F3EDD30460DF10601FFF7F1FD30460DF10701FFF7ECFD96E80C009DF807702D
S325000012409A42CCBFC3EB02020022974229DCB46803EB07091C449DF80630032B02D0DD2B22
S3250000126003D0D5E72F606C6018E0032F16DD20461C49032203F09EF928B9E378102B02D19D
S32500001280AF60EC600AE020461749032203F092F970B9E378042B0BD12F616C6108F10108AC
S325000012A0B6E7B8F1000F18D02846FFF7A3FF14E020460C49032203F07DF90028EED1E37866
S325000012C0092BEBD105EBC0035A6A12B91F625C62E4E701300828F5D1E0E7404603B0BDE800
S325000012E0F08300BF32360A00C82C0A0037B505460C4608460C22002103F0BEF928460DF10A
S325000013000701FFF785FD20B90B4803F0D9F9002010E09DF8073004F10801284603F07F029A
S325000013201B0644BF012363602270FFF771FD0028EAD0012003B030BD05360A002DE9F04177
S3250000134090460E4617460025716A51B1346A032C07DD0DB10431043C38462246274403F0D6
S325000013603BF901350836082DEED14046BDE8F081002318464A6A32B10A6A032A03DD03B1E2
S32500001380043A104480B201330831082BF2D17047002337B501AA0C460B7003210546FFF77D
S325000013A047FD28B10F4901A8032203F003F920B10D4803F085F9002011E028460DF10301DD
S325000013C0FFF726FD0028F3D09DF80330102BEFD128462146FFF71CFD0028E9D0012003B0A7
S325000013E030BD00BF32360A0005360A00704700BFF7B50446182208460D46002103F03CF9F4
S32500001400204601AA0321FFF713FD20B92848002603F056F949E0274901A8032203F0CAF8BE
S3250000142006460028F2D120466946FFF7F1FC0028ECD09DF80030092BE8D16268374623680F
S325000014409A422DDA62609A1A022A29DD20460DF10101FFF7DDFC20460DF10201FFF702FD6A
S3250000146022686168BDF802308A42CCBFC1EB02020022934214DCA068CA1801449DF8010079
S325000014800D2806D0192807D00228D8D12B60696004E0AB60E96001E02B6169610137CEE7A0
S325000014A01FB128463E46FFF7A1FF304603B0F0BD05360A0032360A0038B504460222084698
S325000014C00D46002103F0D8F894E80C009A4213DDD31A022B10D120462946FFF799FC18B94F
S325000014E0064803F0EDF807E02046691CFFF790FC0028F5D0012038BD002038BD05360A000F
S32500001500F7B50546522208460C46002103F0B4F895E80C009A425CDD284606212246FFF769
S3250000152087FC18B92C4803F0CBF843E02846A11DFFF75AFC0028F5D0082128466218FFF798
S3250000154077FC0028EED0284604F11001FFF760FC0028E7D0217C042903D8002604F11107AF
S325000015600AE01E48042223E03A4608370821FFF75FFC0028D6D00136237C28469E42F3DBF3
S3250000158001A9FFF731FC0028CCD0BDF8042041F211039A42C6D128460DF10601FFF724FC98
S325000015A00028BFD0BDF80610202905D90C48202203F086F800200DE0284604F13102FFF7DC
S325000015C037FCBDF806309842ACD10444002384F83130012003B0F0BD05360A0036360A000C
S325000015E059360A0010B50C4678B100290ADB836843B190E80C001C44944205DD0348D21A4C
S3250000160003F05EF8002010BD012010BD75360A0038B50D4601210446FFF7E4FF28B16368C2
S32500001620A2680120591C6160D55438BD70B504460D461646FFF7D6FF50B16368A0683146F1
S3250000164018442A4602F0C8FF636828462B44636070BD00BF2AB100230160436082600120A3
S3250000166070471046704700BF38B50D4602210446FFF7B8FF58B16368A2680220591C616051
S32500001680D5546368A268591C2D0A6160D55438BD38B50D4604210446FFF7A4FFB8B163683F
S325000016A0A2680420591C6160D5546368A268591C6160290AD1546368A268591C6160290CF4
S325000016C0D1546368A268591C2D0E6160D55438BD2DE9F047099E8946BDF82C50002B0CBF91
S325000016E002210321003618BF01261F4673191944044689B29246D0F80480FFF7B5FF494639
S325000017002046FFF785FF20465146FFF781FF27B120469DF82010FFF77BFF26B120469DF82B
S325000017202810FFF775FF25B1204629460C9AFFF77DFF6068C8EB0000BDE8F08710B586B0AC
S3250000174000240393089B00940493019402942346FFF7BEFF06B010BD7FB50093089B019333
S325000017609DF824300293BDF8283003930B9B04930123FFF7ADFF07B05DF804FB2DE9F041ED
S3250000178015460F464DF6DD51044698464668FFF76BFF2046A91D89B2FFF766FF03210B4AB1
S325000017A02046FFF743FF09212046FFF731FF20463946FFF759FF25B1204629464246FFF773
S325000017C035FF6068801BBDE8F08100BF32360A002DE9F041044690461E46BDF82050476886
S325000017E0FFF756FF41462046FFF73EFF20463146FFF70EFF26B120463146069AFFF716FF39
S325000018009DF81C102046FFF703FF20462946FFF72BFF25B120462946099AFFF707FF60689C
S32500001820C01BBDE8F08100BF70B504460E4604214568FFF7EDFE20460C21FFF7E9FE2046A6
S325000018403146FFF7E5FE6068401B70BD2DE9F04704468846042191469A469DF82460BDF8D3
S325000018602C504768FFF7D4FE0D212046FFF7D0FE41462046FFF7CCFE49462046FFF7F4FE8D
S3250000188051462046FFF7C4FE2046BDF82010FFF7EBFE26B1204631460A9AFFF7C7FE2046EA
S325000018A02946FFF7E1FE25B1204629460C9AFFF7BDFE6068C01BBDE8F08700BF2DE9F8430D
S325000018C004468846042116469946BDF820504768FFF79EFE0A212046FFF79AFE2046414618
S325000018E0FFF796FE26B1204631464A46FFF79EFE20462946FFF7B8FE25B120462946099AB3
S32500001900FFF794FE6068C01BBDE8F8832DE9F04704468846042191469A469DF82060BDF86B
S3250000192028504768FFF774FE0B212046FFF770FE41462046FFF76CFE49462046FFF794FE52
S3250000194020465146FFF790FE26B120463146099AFFF76CFE20462946FFF786FE25B12046BE
S3250000196029460B9AFFF762FE6068C01BBDE8F087F8B50D4604466C2117464668FFF748FE1A
S3250000198020462946FFF744FE25B1204629463A46FFF74CFE6068801BF8BD00BF70B502F0DB
S325000019A07F0204461E46456809B142F0800211462046FFF72DFE20463146FFF729FE606837
S325000019C0401B70BD83682DE9F04105461BB1144B144C1E6802E0144B144C1E68274605F161
S325000019E01408386850B141461430062202F0E2FD3F6807F29477F4E703F2947423684BB156
S32500001A000130B042F8DB3146094802F059FE0020BDE8F08125600120C5F89437BDE8F0813F
S32500001A2060072000200920004807200024092000B1360A0007B5002200920921134600F040
S32500001A40B1F803B05DF804FB38B505460C4611B10C2905D838BD296300F0D6F86C6338BD6F
S32500001A600248BDE8384002F02BBE00BF3E370A008368094A0949002B08BF0A4613684BB197
S32500001A80834204D1D0F8943701201360704703F29472F3E718467047200920002409200048
S32500001AA0D0F8901738B500250446C0F8805721B1006816F0FDFAC4F890570023C4F888374E
S32500001AC0C4F88C3738BD00BFF8B505460C46A0F0BBFA2E6820B10768294640682246B847EA
S32500001AE030462146BDE8F84016F0E2BA70B58CB0044601A80E46154604AA2021FFF7AAFDF5
S32500001B00324601A82B460021FFF748FF20469DF80810039AFFF72CFF0CB070BD38B50446DE
S32500001B200D4600F071F80023636320462946BDE8384000F09BBA00BF38B50A4B0A4C054631
S32500001B40002918BF1C46206858B129461430062202F030FD08B9206838BD246804F29474CA
S32500001B60F1E738BD2009200024092000074B10B519680446006800F00DF830B9044B2068FD
S32500001B801968BDE8104000F005B810BD200920002409200021B1814202D0D1F89417F9E7FE
S32500001BA008467047F7B5056B0446082D089E1BD80C2919D800960D4E56F82550A847636B4F
S32500001BC0226B9A4210D0E26BA56823631AB113B9204600F0C1FC3DB1236B2BB9204603B0B3
S32500001BE0BDE8F04000F09CBE03B0F0BD308A0900014B1868704700BF5C072000014B18680C
S32500001C00704700BF4C072000D0F87C1738B5044629B1006816F04CFA0023C4F87C37636A56
S32500001C2000251A68596890681BF0CCF8A36A1A68596890681BF0C6F8E36A1A6859689068D6
S32500001C401BF0C0F8656304F144006587E563256429464FF4E56202F00FFD84F8745784F843
S32500001C60845738BD094B1B6823B183420CD0D3F89437F9E7064B1B6823B1834204D0D3F8C0
S32500001C809437F9E71846704701207047200920002409200020B1007AD0F1010038BF0020EC
S32500001CA0704700BF38B54FF405710546006816F035FA044620B90849084802F001FD09E07D
S32500001CC040F8045B05F11401062202F085FC95F83830A372204638BD9C360A00D1360A006F
S32500001CE0F8B505460E461746A0F0AEF90368FBB12846FFF7D7FF0446D0B1B6F5007F4FF079
S32500001D000003C360068207D90A484FF4007102F0D7FC4FF400732382394604F11200228AD7
S32500001D2002F05AFC28462146BDE8F840FFF7CCBEF8BD00BF1E370A0007B5002200920A21B5
S32500001D401346FFF72FFF03B05DF804FB70B504460E461546A0F078F903686BB12046FFF7F7
S32500001D60A1FF014640B1032206610575C2602046BDE87040FFF7A8BE70BD00BF07B500227C
S32500001D80009208211346FFF70DFF03B05DF804FB036C828B10B586B093420446B0F84C3066
S32500001DA029DA009300F14E03019300F154030293B0F860302246039300F164030493A36CA0
S32500001DC003C816F0D1F910B10F4802F079FC236C2046E16D0133236400F002FDB4F84C20DE
S32500001DE082B1636A196888685968002306B0BDE810401AF093BF2BB94F2106B0BDE8104082
S32500001E00FFF78CBE06B010BD50370A007FB5436A04461A680D46906859681AF0D3FFAA78B1
S32500001E2094F83830934206D020463C2104B0BDE87040FFF773BE94F87437D4F878079D02E9
S32500001E40401BB0F5806FD4F87C6799BF80B2002101214FF48060354411B143F0800301E01C
S32500001E6003F07F030093A37E02900193E18B03952046002300F0FCFB0423636304B070BDCB
S32500001E8038B5436A04461A680D46906859681AF099FFAB7894F838209A4202D020463C21B0
S32500001EA002E0A98821B12046BDE83840FFF736BEAB79190643D594F8841703F07F039942F8
S32500001EC035D12046298BEA6900F098F8224B1B6823B12046298BAA79FFF738FF2B893BB933
S32500001EE02046E18B94F8382000F0A2FB032312E0228C9A4211D3A26A116888685168174A84
S32500001F00126822B99B024FF47A72B3FBF2F200231AF004FF0723636303E020460121FFF787
S32500001F20FDFD94F88437013384F8843738BDB5D32046E18B00F07CFB0323636338BD2046F2
S32500001F40298BEA6900F05AF80123C4F880372046BDE8384000F018BB580720002C09200081
S32500001F6070B505460C461646A0F06EF80368BBB12846FFF797FE034690B162780D2A4FF09D
S32500001F80020208BFA179C260627818BF002101760261466119462846BDE87040FFF794BD78
S32500001FA070BD00BF70B50D46D0F87C170446164629B1006816F07CF80023C4F87C37002345
S32500001FC084F87437AA0AC5F30903002B14BF1346531EC4F8785784F875372068294616F0E4
S32500001FE09DF8C4F87C0710B9C4F8780770BD3146D4F87827BDE8704002F0EEBAF8B5184BF5
S3250000200004461B680D461746D0F88C0713B108B1144812E0D4F88867301A854211D90BB99D
S32500002020AB0000E02B469919C4F88817206816F075F8C4F8900720B90B48BDE8F84002F048
S325000020403FBBD4F88C37D4F890072A461844394602F0C2FAD4F88C371D44C4F88C57F8BD51
S3250000206058072000E4360A000E370A0001234187C36370474B1E0B2B0CD8DFE803F00D0D48
S325000020800D0D0D0D0D060D0D0609418FFFF746BDFFF77EBEFFF7D8BC704700BF4B1E30B581
S325000020A085B0044615460B2B66D8DFE803F06A061B6A546A6A6A6A6A6A6AFFF7F1FC324B83
S325000020C0B4F86C071A7884F83820511C19700090D4F87007A37E0190E18B204600F00EFB2F
S325000020E0012347E0AB7880F83830281DFFF7D2FD014660B93B2363870090287B94F83820C3
S32500002100019002910391204600F02CFB31E0298A6A692046FFF7E4FD2068FFF76FFD05467B
S3250000212028B1204605B0BDE8304000F0E7B92068FFF75EFD034680B2E18B0090A07E194435
S3250000214001902B4694F8382002950395204600F009FB05230EE0AA7800213C2380F8382082
S3250000216043870091807E029101900391204600F07FFA0823636304E005B0BDE83040FFF7E4
S3250000218063BC05B030BD00BF280920004B1E10B50B2B15D8DFE803F0181818181806180BBC
S325000021A0181818101146BDE81040FFF769BE3E21BDE81040FFF7B2BCBDE81040FFF7E8BD10
S325000021C0BDE81040FFF740BC10BD00BF4B1E10B504460B2B2DD8DFE803F03131313106311E
S325000021E0310C3131122720461146BDE81040FFF70DBE20463E21BDE81040FFF78FBC94F807
S32500002200743794F875279A420AD1636A1A68596890681AF0D7FD2046BDE8104000F0B4B990
S32500002220013384F8743710BD2046BDE81040FFF7AFBD2046BDE81040FFF706BC10BD00BF14
S3250000224038B54B1E044615460B2B49D8DFE803F04C4C4C064C4C4C424C4C4C44436A1A6805
S32500002260596890681AF0AEFDAA7894F838309A4202D020463C2102E0A98821B12046BDE873
S325000022803840FFF74BBCEB8863B92046A98AAA69FFF7B4FE0123C4F880372046BDE83840C6
S325000022A000F072B9228C9A4211D3A26A1168886851680E4A126822B99B024FF47A72B3FB3A
S325000022C0F2F200231AF02AFD0723636338BD20460121D4E73E21D2E7BDE83840FFF758BD58
S325000022E0BDE83840FFF7B0BB38BD00BF2C0920004B1E10B504460B2B26D8DFE803F02A2A97
S325000023002A2A062A2A0C2A2A122020461146BDE81040FFF77BBD20463E21BDE81040FFF7E7
S32500002320FDBB94F87537A3B9636A1A68596890681AF048FD2046BDE8104000F025B9204665
S32500002340BDE81040FFF724BD2046BDE81040FFF77BBB10BDF0B585B00446481E15461F460D
S325000023600A9E0B285AD8DFE800F05F5F5F5F065F23315F384D53636A1868596880681AF027
S3250000238021FDD4F8781731B12046294605B0BDE8F040FFF73BBDA07E3D230190638794F80A
S325000023A03820009102910391204600F061F93BE0E56A2868696880681AF004FD20463946B4
S325000023C0324605B0BDE8F040FFF7ECBD20463E2105B0BDE8F040FFF7A1BB636A1A685968A5
S325000023E090681AF0EFFCA07E00213D236387019094F83820009102910391204600F038F9AD
S32500002400082303E0D4F8783773B1022363630BE0204605B0BDE8F040FFF7BABC204605B0BC
S32500002420BDE8F040FFF710BB05B0F0BD4B1E0B2B70B5044616461ED8012240F6DF6502FAA5
S3250000244003F31D40E5B9DD050DD4980613D5A36A1868596880681AF0B5FC20463146BDE8C9
S325000024607040FFF70DBDC18B90F8382000F0E0F80323636370BD2046BDE87040FFF7E4BA8A
S3250000248070BD00BF2DE9FF414D1E0B2D044698460A9F29D80126AE4040F6BF5535404DBBA3
S325000024A0B30512D476061FD5C56A2868696880681AF088FC204641463A46FFF773FD2046C9
S325000024C004B0BDE8F04100F019B83D23438790F838200095817E029501910395294600F0ED
S325000024E041F90823636305E0204604B0BDE8F041FFF7AABA04B0BDE8F08100BF30B585B0D9
S32500002500D0F878570446B5F5806F4FF0000204D8D0F87C07ADB213460BE00E4B80F87427C4
S325000025201B8823B1C18B15461944104602E018461D4619460093A37E0390019394F8382003
S3250000254002952046002300F00DF90223636305B030BD00BF5407200010B504469FF074FD89
S3250000256003687BB12046FFF79DFB014650B10423C360638F03820023E3632046BDE81040FD
S32500002580FFF7A2BA10BD00BF10B50446FFF73CFB002161632046BDE81040FFF767BD00BF02
S325000025A02DE9F04786B00446DDF838A004F14E05002004F154062064A164A4F84C201946F4
S325000025C006222846DDF83C90DDF84080119F02F003F851460622304601F0FEFFB4F84C3041
S325000025E0C4F85C908DE8680004971FFA88F3039394E803002246A36C15F0B6FD10B10B48C9
S3250000260002F05EF82046E16D00F0EAF8B4F84C204AB1636A196888685968002306B0BDE856
S32500002620F0471AF07BBB06B0BDE8F08750370A00F0B500F16405044689B00E4605A81746DA
S325000026404FF4E1612A46FFF705F8394605A8FFF7EBF80C2204F11403206601920290A18978
S325000026600093039520463246FFF79AFF09B0F0BD2DE9F04395B0044606A80F4604F164061C
S3250000268090460CAA202199469DF87050FEF7E2FF9DF8742006A87F21FFF728FA324609A8A5
S325000026A04FF4E161FEF7D6FF0023089800939DF81C30029001931F98BDF87830049009A80F
S325000026C0039341464A462B46FFF7C0F8206604F11403009315F0800F4FF00D03019304F197
S325000026E00E030290A1890396204614BF3A460022FFF756FF15B0BDE8F08300BFF0B593B0C4
S32500002700044604A81D460E4617460AAA2021FEF7A1FF2A4604A8002104F16405FFF7E6F9AF
S325000027202A4607A84FF4E161FEF794FFBDF8603007A89DF814200093199B39460193069BAF
S32500002740FFF7BCF80A2204F11403206601920290A1890093039520463246FFF721FF13B0DA
S32500002760F0BD00BF2DE9F04192B0044604A80E4604F1640517460AAA20219846FEF76AFF28
S325000027809DF8642004A87F21FFF7B0F92A4607A84FF4E161FEF75EFF9DF81430069800932F
S325000027A00190BDF868301B980293039007A839464246BDF86030FFF7A9F8206604F1140336
S325000027C000930B23019304F10E030290A189039520463246FFF7E4FE12B0BDE8F08100BFF7
S325000027E038B504460D469FF02FFC0368C3B12046FFF758FA034698B101220561C260226E35
S32500002800426194F8741794F875278A4218BF41F08002027619462046BDE83840FFF754B91D
S3250000282038BD00BF2DE9F74388464FF4F361814617461E4615F072FC04460025002859D06E
S3250000284029464FF4F36201F017FF314604F114000622A560C4F80090C4F80480A78101F012
S32500002860BBFE4FF4FA63E3834FF6FF73A576A58323842046FFF7FCF82046FFF7A3F808B9EA
S325000028801E4813E094E8030004F10E0215F014FC002802DA1A4801F013FF20681949224685
S325000028A0194B1BF00DFA606258B9184801F008FF2046FFF7DDF82068214615F0F9FB002038
S325000028C019E0206812492246124B1BF0F9F9A0620028EAD0206810492246104B1BF0F0F9D8
S325000028E0E0620028E1D00021009120460A460B46FFF758F9204603B0BDE8F08377370A00CE
S3250000290090370A007D1D0000AB370A00B9370A00351A0000D1370A00391D0000E4370A0084
S3250000292010B5044620B9264801F0CAFE204610BD436A1A68596890681AF044FAA36A1A6890
S32500002940596890681AF03EFAE36A1A68596890681AF038FA636A1A68596890681AF0AEFAF8
S32500002960606A0FF0F3FBA36A1A68596890681AF0A5FAA06A0FF0EAFBE36A1A685968906833
S325000029801AF09CFAE06A0FF0E1FB2046FFF770F8D4F8701711B1206815F08AFBD4F87C1722
S325000029A011B1206815F084FBD4F8901711B1206815F07EFB2068214615F07AFB012010BDB1
S325000029C064370A00F8B51546044620B90F4801F077FE2046F8BD0E4A1068174610B9D4F887
S325000029E0806756B1D4F88C278A4206DC2A601846D4F8901701F0F0FD01E000232B603B684B
S32500002A0013B12046FFF74CF80120F8BD64370A005807200010B5044620B9074801F050FEDC
S32500002A20204610BD054B1B6813B9D0F8800708B1D4F88C0710BD00BF64370A0058072000A7
S32500002A40014B1860704700BF500720003C292DE9F0478EB0814616461C4602D04B2916D01E
S32500002A6072E01846FFF782F8B36805461BB1052B6AD10C2400E00B242846FFF7F3F80028DD
S32500002A8062D00022009228462146134641E0588840BA80B202F098FF169F04F110028046E4
S32500002AA003A8103F3946FEF7D7F900284CD003A806A9FEF723FB002846D09DF819300A3BC0
S32500002AC0032B41D8DFE803F0020B05080121032407E00121052404E00021062401E0002129
S32500002AE0042406F1180A5046FFF726F8054698B19DF819300A2B02D1FFF712FF0CE028460A
S32500002B0006A93A46FFF72CFA284606AA214600230093FFF747F817E09DF819300A2B01D019
S32500002B200C2B11D10A4B1B680BB90A480AE0484696F82F1042465346FFF774FE0546002847
S32500002B40DDD1054801F0BCFD0EB0BDE8F08700BF50072000F7370A001E380A0010B5044613
S32500002B6020B9044801F0ACFD204610BD4160012010BD00BF64370A0010B5044620B9074833
S32500002B8001F09EFD204610BD036B23B94FF47A735943890A0184012010BD00BF64370A00F0
S32500002BA010B5044620B9054801F08AFD204610BD036B03B98183012010BD00BF64370A00AF
S32500002BC0F8B50D461746044620B9114801F078FD2046F8BD066BC6B9D0F8701721B100681C
S32500002BE015F066FAC4F87067C4F86C572068294615F094FAC4F8700710B9C4F86C0704E0BF
S32500002C003946D4F86C2701F0E7FC0120F8BD00BF64370A0070B50E461546044620B909487A
S32500002C2001F04EFD204670BDFFF71CF848B1236B33B9204631462A46FFF7B4F9012070BD04
S32500002C40002070BD64370A0010B5044620B9054801F036FD204610BD036B03B9C183012061
S32500002C6010BD00BF64370A0013B50022044620B9064801F025FD204605E000920221134656
S32500002C80FEF790FF012002B010BD00BF64370A0038B504460D469FF0D7F905604460012093
S32500002CA038BD00BF08B59FF0CFF90021082201F0E3FC012008BD00BF2DE9F04F8DB081462D
S32500002CC0A1F104080C4601F17C0A1E469DF85870049258F8045F002D39D0049A2AB3EA7B66
S32500002CE005F1100195F80EB008A801F075FC062205F1080106A801F06FFCE87A297A6A7A50
S32500002D00AB7A0090287B0190687B0290414801F0D7FC012306AA2D684846019308ABCDF8FF
S32500002D2000B0214600F08AF9D5E72FB16B68179AD31AB3F5167FD2D83EB1304605F10801AB
S32500002D40062201F037FC0028C9D02D68C3E7D045BFD1D4F88080AA46B8F1000F56D0049B43
S32500002D600BB1CFB106E067B1D8F80430179AD31A022B06D9D8F80430179AD31A022B0DD8B1
S32500002D800AE0002E3ED0304608F10801062201F011FC0028E5D035E0002300E00123DBB2C3
S32500002DA00593D8F80030BAF1000F02D1C4F8803001E0CAF80030179B08F1100B0622009328
S32500002DC020465946012300F08DF9059A72B168B998F80E30179A009301230193029208F114
S32500002DE00802484621465B4600F0B0F840460FF0ADF9BAF1000F02D1D4F88080ACE7DAF8AC
S32500002E000080A9E7C246D8F80080A5E70DB0BDE8F08F00BF26430A007FB50DF10F030093CE
S32500002E2004AA05AB00F074FA50B99DF80F30012B06D1049B1878083818BF6FF0000001E06A
S32500002E404FF0FF3007B05DF804FB00BFCA6830B587B01C461378DB0702D44FF0FF301DE0D6
S32500002E600DF10F0304AA009305AB00F051FA0028F3D19DF80F30112BEFD105990729ECDDBD
S32500002E80049A9578D37843EA0523442BE5D12929E3DD137A022BE0D12432226007B030BDC3
S32500002EA010B586B0CC680DF10E0300930DF10D03019304AA05AB00F0E5F910B14FF0FF343A
S32500002EC03AE0204602F02CFB30B1BDF80E3040F60602934208D117E019482146062201F0BB
S32500002EE069FB0028F1D0E9E748F2DD629342E5D1059B3F2B0DDD049B9A793A2ADED193F867
S32500002F002830882B05D0D9E71C21042218230E2003E04021102230230820059C8C42CDDB37
S32500002F2004990844194401F045FB04460028C5D10448054901F0C4FB204606B010BD00BF1A
S32500002F407A92090079380A0039380A002DE9F84F9DF828800E46B8F1040F93461C469DF8A6
S32500002F602C9011D11A785978987841EA0205DB7805431D4359D00A4010401840FF2854D0A7
S32500002F80474603F01F0A27E0B8F1060F4DD15A7893F80FA01B781343A2781343E27813438A
S32500002FA02279134362791343A2791343E2791343227A1343627A1343A27A1343E27A13437F
S32500002FC0227B1343627B1343A27B13435AEA03032BD010270AF01F0A07F114000FF0AAF806
S32500002FE0054630B359460830062201F0F5FA0C9B05F1100085F80E806B60EF7321463A46F2
S3250000300001F0EAFAB9F1000F09D00FFA8AFA56F82A302B6046F82A500020BDE8F88FD6F8B1
S3250000302080302B60C6F88050F6E74FF0FF30BDE8F88F6FF01A00BDE8F88F00BF2DE9F74F8A
S325000030409DF830609A46042E9DF834300D460192009305D19AF803C0B1460CF01F0B07E092
S32500003060062E35D19AF80FC04FF010090CF01F0B009B13B155F82B4001E0D5F880404FF06D
S3250000308000081CB3A27BB2421DD1514604F110004A4601F08FFAB0B9019904F10800062286
S325000030A001F088FA074670B92368B8F1000F07D1009A12B145F82B300DE0C5F880300AE0CD
S325000030C0C8F8003007E0A0462468DAE7274605E04FF0FF3702E020460FF038F8384603B071
S325000030E0BDE8F08F042AF8B50E46154604D1CA782F4602F01F0207E0062A01D00020F8BDC0
S32500003100CA7B102702F01F0213B150F8224006E0D0F8804003E0A37BAB4203D02468002CC5
S32500003120F9D1EBE7314604F110003A4601F042FA0028F3D1069B20466360F8BD062200F140
S325000031408A030846194601F047BA00BF062200F184030846194601F03FBA00BF06228A30A6
S3250000316001F03ABA0622843001F036BA02312DE9F0471FFA81F8414692469946BDF8207012
S3250000318004F008FC054630B91B4940F24A221B4801F096FA2CE0C468038A5146A61CC660D3
S325000031A0023B038204F10800062201F015FA49463046062201F010FA9DF824304FEA172998
S325000031C07BB14FEA182304F11000A37384F80F800B49062201F000FA84F81690E775162305
S325000031E003E00E2384F80E90E7730A9A1E4416602846BDE8F08700BF56380A00B0380A00F2
S32500003200548A0900F0B585B000250A9EADF80650B8B12C46475B0235102D3C44FAD10020C3
S325000032200D5A023010282C44FAD1002103918DF80F300B4602A9595A0233082B0C44F9D1D2
S3250000324000E004463346B018C11A012903D933F8021B0C44F8E75308D20706D516F8133045
S325000032608DF80630BDF806301C44A3B203EB144404EB1444E04380B205B0F0BD08460EF05D
S3250000328065BF00BF2DE9F0410D8A17460D2D9846CC6803DC4FF0FF30BDE8F081227B637BE0
S325000032A043EA0223B3F5C06F03DB002604F10C010CE0152DEEDD154804F10E01062201F066
S325000032C079F90028E6D1012604F1140108784B7843EA0020B0F5014F0AD16219881D904214
S325000032E001F10403D6D808794A79194642EA0020069B02313960611A0D44C8F80050188051
S32500003300079B00201E70BDE8F08100BF548A0900F0B587B01E460DF10E0300930DF10D03AB
S32500003320174604AA019305ABFFF7ACFF002836D1BDF80E30B3F5006F31D1059D132D2EDD6F
S3250000334004990A781309042B29D14C8802F00F0264BAA4B2AC424FEA820201DA059400E0B9
S325000033601DDC132A059C01D9A24206DD00940E4914230E4801F0A4F911E0CB885BBAC3F3BA
S325000033800D0323B108490A4801F09AF907E04D7A0C9B1144A21A396032601D7001E04FF0DE
S325000033A0FF3007B0F0BD00BFC6380A00F8580A0093380A0090200EF0BDBE00BF10B50129A7
S325000033C00ADD0478437894424FEAC30301D1994203DA1844C91AF2E7002010BD38B5438AAB
S325000033E0044603F00303012B0AD1036AB3B1203000F088F800210422054601F03DF903E050
S3250000340080680EF08FFE054645B1A389E28901339BB29A42A38105D2E38103E0238A0025EA
S3250000342001332382284638BD10B50446084681B1638A03F00303012B04D104F1200000F0CF
S3250000344055F801E00EF082FEA3890020013BA38110BD6FF0010010BD38B505460C4608463C
S325000034601422002101F008F9AB682046A360AB892946E381EB89082223822B8A638201F0AC
S32500003480BFF90023E3716B8A002003F00303012B04BFAB8AA38138BD2DE9F8431668038951
S325000034A004469E420F4690461BDB00254FF024096389AB420FD9206809FB0500438A5907AB
S325000034C006D5721C04D03946013E1437FFF7C4FF0135ADB2ECE723890020C8F80030BDE81E
S325000034E0F8836FF00D00BDE8F88300BF38B505460C4608460422002101F0BEF82B68236024
S325000035002C6038BD03680BB11A680260184670472DE9F8430F46904699460446B0B1037A81
S32500003520BBB10068B8B1866800233546237295E8050039469047B8F1000F02D048463946B8
S32500003540C047AD68B542F2D1012323720020BDE8F8836FF00F00BDE8F88300BFF8B5164640
S32500003560027A05460F464368AAB1D868FFF736FF044698B100210C2201F07EF8286884E873
S32500003580C00010B9A4602C60F8BD8368A36084602C600020F8BD6FF00F00F8BD6FF01A0088
S325000035A0F8BD00BF38B50C4605468068FFF716FF206050B100210C2201F05EF8236801224F
S325000035C01A72236800205D6038BD6FF01A0038BD036870B593E850001B7A0546E3B17CB192
S325000035E0A1688C4205D12146F0680024FFF71CFF06E08B68F068A360FFF716FFA468EEE704
S325000036000C222868002101F037F8B0682968FFF70BFF2C60002070BD6FF00F0070BD00BFC9
S32500003620F8B51746027A04460D4690E848005AB313B96FF01D0014E09A689342F9D15A68F5
S325000036408A4224D11A68BA4221D1F0681946FFF7EBFE00202060F8BD99684A68AA4203D0D6
S325000036600B46002BF8D10EE00A68BA42F8D12268F0688A428A6808BF23609A60FFF7D4FE2E
S3250000368000210846ECE7F8BD6FF00F00F8BD6FF01D00F8BD00221346FFF73ABFFFF738BF82
S325000036A011B1042902D8704700F074B8014801F007B800BF3E370A0038B50D460021044686
S325000036C00A4600680B4617F0F7FA3DB163691A685968906800232A4619F020FB052323628A
S325000036E038BD00BF2DE9F8430568044628460E4617F0F2F92B68074693F87031D4F80080FC
S32500003700CBB1D5F8B4079EF067FCA0B19FB1B4F80890D5F8B40739469EF04EFC228940EA15
S3250000372009000E2A8CBF4FF4404200221FFA80F942EA090208E023890E2B8CBF4FF440426A
S32500003740002243F480531A4340460121334617F0B3FA3EB163691A68596890680023324674
S3250000376019F0DCFA04232362BDE8F883C36910B5052B04460AD8042908D8054A52F8233052
S325000037809847236AE2699A4218BFE36110BD00BF608A0900002110B504460A460B460068BD
S325000037A017F08AFA63691A685968906819F00AFB00236362236210BD2DE9F8430568044621
S325000037C028460E4617F088F92B68074693F87031D4F80080CBB1D5F8B4079EF0FDFBA0B166
S325000037E09FB1B4F80890D5F8B40739469EF0E4FB228940EA09000E2A8CBF4FF44042002273
S325000038001FFA80F942EA090208E023890E2B8CBF4FF44042002243F480531A4301213346D8
S32500003820404617F049FA63691A68596890680023324619F073FA02232362BDE8F88300BF11
S325000038400421FFF793BF00BF08B50EF081FC0323B0FBF3F202FB1300431C6420584380B288
S3250000386008BD00BF30B587B0044600210A460B46006817F021FA2269218B4FF0FF330093D1
S325000038800131019389B2156821830295002503950495127B20680592012217F041F90123DF
S325000038A0236207B030BD00BF30B587B00446002213460221006817F0FFF92269218B4FF039
S325000038C0FF3300930131019389B2156821830295157A206803955268049200220592012289
S325000038E017F01EF9636A013363620323236207B030BD00BF034631B1032907D9042902D199
S325000039004189FFF7EFBE1846FFF7CABE704700BF034651B103290BD9042906D1818909B1BF
S32500003920FFF7CABE4189FFF7DDBE1846FFF7B8BE704700BF4B1E032B0AD8DFE803F0020231
S325000039400B0B012901D1FFF7AFBF4189FFF7CABEFFF7A6BE704700BF032908D0042902D0D0
S32500003960012902D17047FFF79FBFFFF799BE70474B1E10B50446032B0BD8DFE803F00E0ED6
S32500003980020EFFF761FF01462046BDE81040FFF713BFBDE81040FFF783BE10BD4B1E10B52A
S325000039A00446032B12D8DFE803F015150215436ADB0603D1BDE81040FFF754BFFFF744FF0B
S325000039C001462046BDE81040FFF7F6BEBDE81040FFF766BE10BD00BF08B59EF045FB4389A3
S325000039E013B140680EF0B2FB00F014F8002008BDF8B517461D4604460E469EF035FB036895
S32500003A002360037B3370037A3B70426800202A60F8BD00BF08B59EF027FB4FF0FF320260CD
S32500003A2003220272024A034642600020588108BD5A8A09002DE9F0411D460E4690460746E4
S32500003A409EF012FB04463846FFF7C6FF6800266084F80C80257260810EF064FB606048B9B6
S32500003A600849094800F02CFEFFF7D4FF6FF01A00BDE8F0810699628900F0AEFD0020BDE842
S32500003A80F08100BFD6380A00F14D0A0070B50E4605469EF0E1FA04460021282200F0ECFDD5
S32500003AA0256026819EF0E0FA2061211D206817F027F8002802DA0E4800F002FE20680D49D7
S32500003AC022460D4B1AF0FCF80546606148B90B4800F0F6FD20462946282200F0CDFD284698
S32500003AE070BD20460021FFF741FE204670BD00BFEE380A00413800000A390A00B9370A0095
S32500003B0038B50446002520B90D4800F0D9FD204638BD436945601A685968906819F052F914
S32500003B2063691A685968906819F0C8F960690EF00DFB20462946282200F09EFD012038BD1F
S32500003B4064370A004068704710B5044620B9054800F0B6FD204610BD0021FFF707FE012013
S32500003B6010BD00BF64370A0010B5044620B9054800F0A6FD204610BD0121FFF7F7FD0120E6
S32500003B8010BD00BF64370A0010B5044620B9064800F096FD204610BD418182810221FFF724
S32500003BA0E5FD012010BD00BF64370A000C2A14BF042222225BBA30B59BB214468A420DD20C
S32500003BC0055B9D420DD005196D886DBAADB20435ADB22C442A44A4B292B2EFE74FF0FF30D6
S32500003BE030BD204630BD00BFEC2910B51DD990F8EC30632B19D190F8ED30822B15D190F814
S32500003C00EE30532B11D190F8EF30632B0DD1F0238B420AD2C45CFF2C07D0944208D0C418A5
S32500003C206478023423449BB2F2E74FF0FF3010BD184610BD2DE9F04385B01E469DF834309E
S32500003C4081460C460C9F002B38D00846012311462278FFF7ABFF451C30D023189B88B3F5FD
S32500003C60807F02D100F10C0504E0B3F5407F25D100F1080504EB050802A84146062200F0E6
S32500003C80ABFCBDF80A30728831885A40BDF808304B401A43B188BDF80C304B4013439BB20E
S32500003CA063B93B7806228DF8083002AB009209EB0200414600F046F93B786355002005B01F
S32500003CC0BDE8F0832DE9F04786B01D469DF83C3082460C4690460E9F002B6AD00B78012B2E
S32500003CE067D1062201F11C06314602A800F074FCBDF80A306A8829885A40BDF808304B4025
S32500003D001A43A988BDF80C304B4013439BB263B93B7806228DF8083002AB00920AEB020006
S32500003D20314600F00FF93B782377414620463D22FFF75AFFB0F1FF3F80463AD023189B7829
S32500003D40012B36D10622C61C04EB060902A8494600F042FCBDF80A306A8829885A40BDF8DA
S32500003D6008304B401A43A988BDF80C304B4013439BB2F3B93B78F0078DF8083009D50522B5
S32500003D8008F102060DF1110002A9A35D8DF8103002E0062204A802A900F01EFC062204AB5B
S32500003DA000920AEB0200A11900F0CCF83B7889F80030002006B0BDE8F08700BF2DE9F043A8
S32500003DC085B01F469DF8343081460C460C9D002B38D10846012311462278FFF7E7FE421CB8
S32500003DE030D023189B88B3F5807F02D100F10C0604E0B3F5407F25D100F1080604EB0608A5
S32500003E0002A84146062200F0E7FBBDF80A306A8829885A40BDF808304B401A43A988BDF88A
S32500003E200C304B4013439BB263B93B7806228DF8083002AB009209EB0200414600F082F838
S32500003E403B78A355002005B0BDE8F0832DE9F04786B01F469DF83C3082460C4690460E9D40
S32500003E60002B6AD10B78022B67D1062201F11C06314602A800F0B0FBBDF80A306A88298864
S32500003E805A40BDF808304B401A43A988BDF80C304B4013439BB263B93B7806228DF80830A9
S32500003EA002AB00920AEB0200314600F04BF83B782377414620463D22FFF796FEB0F1FF3F1A
S32500003EC080463AD023189B78012B36D10622C61C04EB060902A8494600F07EFBBDF80A30F2
S32500003EE06A8829885A40BDF808304B401A43A988BDF80C304B4013439BB2F3B93B788DF876
S32500003F000830F30709D5052208F102060DF1110002A9A35D8DF8103002E0062204A802A983
S32500003F2000F05AFB062204AB00920AEB0200A11900F008F83B7889F80030002006B0BDE84D
S32500003F40F08700BF70B50578447814EB05242CD0E44302328D1CA4B21144A9420DD015F81F
S32500003F60026C023515F8032C02EB0622A41A002CDCBF04F1FF34A4B2EFE704999A1C0231E6
S32500003F800B4493420CD012F8025C023212F8031C01EB05210C44E10344BF0134A4B2F0E7AB
S32500003FA0E443A4B244702312037070BD73B505460E461446D3B1062205F10801684600F08B
S32500003FC00BFBBDF8022023786188208851408DF80030BDF8002042401143A088BDF80420E0
S32500003FE042400A4392B2EAB92B721BE0C388B3F5007F17D1062205F11201684600F0ECFA5E
S32500004000BDF80230628821885A40BDF800304B401A43A188BDF804304B4013439BB20BB9B5
S325000040203378AB74002002B070BD00BFF0B50446442C0846069F11469DF81C601A469DF843
S325000040402050059B18D008D8432C23D1059706960795BDE8F040FFF735BE40F2222C644564
S3250000406011D00CF1010C644514D1059706960795BDE8F040FFF7DEBD059706960795BDE80E
S32500004080F040FFF7E3BE059706960795BDE8F040FFF794BE0020F0BD2DE9F3418C891646DA
S325000040A064BA9846A4B240F2C653A4F116020D4692B29A42089F13D81C4B0E31062218685D
S325000040C09B8800906846ADF8043000F073FA10B14FF0FF3026E0AC8A162164BAA4B200E04D
S325000040E00E21B4F5014F04D1EC89043189B264BAA4B2B8F1000F01D0A8F800106FB148F6CD
S325000041008E039C4207D026339C4204D01333E11A4B424B4100E001233B7016B134800020A4
S3250000412000E0304602B0BDE8F08100BFCC2C0A00F0B587B00B780546852B0C460C9E9DF8AF
S32500004140347005D10B7A012B61D101F10A055CE0862B0DD10B7C032B11BF01F110054D7CDB
S32500004160023501EBC5052B78012B50D102354CE0872B14D1002102A8102200F07DFA1022CC
S3250000418002A805F1080100F015FA00283FD0237E012B14BF002504F11A059FB937E0882B3F
S325000041A007D1182A33D00B7E022B30D101F11A052BE0892B2BD191F82830022B27D101F161
S325000041C02A0522E01DB3294602A8062200F004FA337872888DF80830BDF80A3031885A4005
S325000041E0BDF808304B401A43B188BDF80C304B4013439BB25BB9062202AB0092A01C2946E6
S32500004200FFF7A0FE33782B7001E0002FDBD1002007B0F0BD70B586B01B780A9C1B096588D9
S32500004220042B6DBAADB202D1A5F1430303E0062B07D1A5F222239BB2012B8CBF0023012341
S3250000424000E0002303F0FF06ABB1A38804F1080600965BBA02959BB2083B9BB201930B9B7A
S3250000426003939DF8303004939DF83430059323460E9CA04700E0304606B070BD2DE9F04309
S32500004280ADF5097D1F4608AE814688461046002115461022002400F0EFF90021102238466F
S325000042A000F0EAF9304600214FF4007200F0E4F9444505DA19F8043006F814300134F7E70A
S325000042C001A80BF0D3FB4FEA081201A831460BF0E5FB284601A90BF0B3FB01A80BF0C6FBF2
S325000042E0294601A880220BF0D9FB384601A90BF0A7FB0DF5097DBDE8F08300BF2DE9F041C4
S32500004300AEB0044602A80F4608AD0021164615224FF0070800F0B0F9214602A81022002439
S3250000432000F05AF908FB04F102A800F05BF828550134182CF6D1002439460822684600F027
S325000043404BF929190EA8002202F044FF69460EA802F03EFE301908346946082200F03CF9AE
S32500004360182CE9D12EB0BDE8F08100BF70B59AB00D460646684614460BF0C4FE684631468E
S325000043802A460BF0D1FE204669460BF071FE1AB070BD00BF10F0010322D00B68C3EB50033E
S325000043A023F000431F2B08D80120116800FA03F30B4215D10B4313607047B3F1804F0FD2EE
S325000043C0173B1F2B8EBF00201068D8401060086803440B601368012043F4000313607047AC
S325000043E000207047082391FBF3F301F00701C218C05C5278C1F1080102EB002080B2084147
S3250000440000F0FE00704700BF10B570B1446940F28243302CCCBF1C464FF460749DF034F98E
S3250000442028B19DF029F9241A01E04FF46074204610BD00BF2DE9F74F90468246A8F5006BC4
S32500004440084600240E4699460C9D9DF838700FF0EFFC0D9B9C421AD07369352B0FD1B36939
S325000044605B0028D504EB0903009300230193304651465A4600F02AF825F8140005E004EBD5
S32500004480090338F8133025F814300134E1E7A7B12A884FF6FF739A4204D10A490A4800F032
S325000044A00FF908E028466100FF2201F095F89F3818BF012002E0012000E0384603B0BDE810
S325000044C0F08F00BF64390A0032390A0033F0005108B50BD10299B3F1005F4FEA4101C2F89C
S325000044E0941104BFBDF80C10C2F8981143F00041C2F890114FF47A7111F1FF310AD3D2F844
S3250000450090010028F8DB29B906491A46064800F0D7F804E01BB9D2F8980180B208BD4FF614
S32500004520FF7008BD58390A0016390A0043691F2B02DC01F5805070478369034813F0804FF3
S3250000454008BF0020704700BF00080018F0B585B005460A9E0127B2FBF3FC00AC0B9803FBFA
S325000045601C223C44825C3846013704F8012C6246002AF0D10EB1864204DC013C00AA0DF1DB
S32500004580FF3309E0301A20443023844202D004F8013BFAE73046F0E79C4209D08D4204F180
S325000045A0FF3405F101059CBF627805F8012CF3E705B0F0BD002330B5934208D0C55CCC5C2D
S325000045C0A54206D303F10103F6D9012030BD002030BD4FF0FF3030BD032A30B504D980EA7F
S325000045E0010313F0030302D0044600231AE04C4204F00304151BA34203D0CA5CC25401338E
S32500004600F9E7C41819440022AB1A032B03D98B58A3500432F8E705F0030225F003052C4418
S325000046202944E2E7934203D0CD5CE5540133F9E730BD00BF8318994230B502D28B189842C8
S3250000464003D3BDE83040FFF7C7BF81420BD25342541E0519214419442B441AB18C5C9C5454
S32500004660013AFAE730BD06D90023934203D0CC5CC4540133F9E730BD072A30B501D98307C6
S3250000468001D0024416E029B1CCB244EA042444EA044400E00C46034643F8044BD51A0544A6
S325000046A0032DF9D8131F02F0030223F0030304331844E6E7904202D000F8011BFAE730BDCB
S325000046C00FB4F0B5C3B048AC01AD54F8047B9CF063FF4FF47A73B0FBF3F2064603FB12631F
S325000046E00E49284600F02AF8C0F5807106460131234628183A46009400F0F6F806440024B0
S32500004700B44204DA285D01349DF09EF8F8E7304643B0BDE8F04004B0704700BF85310A00DB
S325000047200CB407B504AB53F8042B019300F0DCF803B05DF804EB02B0704700BF0EB403B5DD
S3250000474003AA52F8041B019200F0E4F902B05DF804EB03B0704700BFC9B2024610F8013BB7
S325000047608B4203D0002BF8D11846704710467047013910B511F8013F044633B110F8012BD3
S325000047801AB19A4208D3F5D909E0227812B133B1002010BD002BFBD04FF0FF3010BD01205A
S325000047A010BD00BF0023CA5CC2540133002AFAD1704700BF0023C25C0AB10133FBE71846F9
S325000047C0704700BF0023F0B5CC5CD51AC7184CB1C65C3EB1934209D0A6420BD303F1010325
S325000047E0F2D90AE015B13B7813B134B10020F0BD002CFBD04FF0FF30F0BD0120F0BD00BF70
S3250000480010B5024404460346934205D011F8010B03F8010B0028F7D118460021D21AFFF7DD
S325000048202BFF204610BD00BF0022C9B210B5034610F8014B8C4218BF13460CB11A46F6E75F
S32500004840184610BDF0B5274E047803460130355DDFF890C005F0200505F0FF07002DF3D158
S325000048602B2C01D1034605E02D2C08BF034614BF0027012762B91A78302A15D15A7802F09F
S32500004880DF02582A07BF10220233082201330CE0102A0AD11878302807D1587800F0DF00C4
S325000048A0582802D1023300E00A2200201E46013334781CF8045015F0440F02D17FB14042B5
S325000048C00DE015F0040F01D0303C03E0AD074CBF573C373C9442F1D202FB0040E6E701B193
S325000048E00E60F0BD9A8A09002DE9F74F01394518411E4FF0000A80468D4238BF4FF0FF35D0
S3250000490004465746DFF808921178002900F0EE80252906D0AC4202F1010298BF2170013404
S32500004920F2E7517823290ABF4FF0010A0132023211782D2901D0302900D101320021107853
S325000049401646013258B319F800C00CF0040C0CF0FF0BBCF1000F09D030380144107819F8F9
S325000049600000400744BF0A204143E8E72E2816D132465F460A205278013682B1DFF890B19A
S325000049801BF802C01CF0040F09D0303A1744727819F80220520748BF47433246EBE7327884
S325000049A06C2A08BF01363078692850D00AD858286DD001D8502809E0632800F08380642821
S325000049C045D089E0732815D00FD8702840F084801A6803F1040B4B494B4B502814BF0846D8
S325000049E0184608230093019068E0752842D078284DD071E0454A03F1040B1B68002B08BFF8
S32500004A001346581E07B909B1234613E010F8012F002A68D0AC4204F1010498BF04F8012CE9
S32500004A20F4E710F8012F3AB1AB4201F1FF3198BF1A7001330029F4D15C182022A34252D0A3
S32500004A40AB4203F1010398BF03F8012CF6E71A6803F1040B002A07DAAC4204F101049CBF3C
S32500004A602D2304F8013C5242274B009101932046294607E0244A03F1040B009101922046C5
S32500004A8029461A680A23FFF761FD04442BE0BAF1000F06D02246302002F8020B3078607084
S32500004AA014461A6803F1040B96F800E01648154BBEF1580F08BF03468DE80A00204629466B
S32500004AC01023E0E7AC4203F1040B1B6804F1010498BF04F8013C06E0AC4204F1010498BFB3
S32500004AE004F8010C9B465B46721C0DE7AC4295BFC8EB0400C8EB05002170297003B0BDE870
S32500004B00F08F00BF788A0900898A09007E310A009A8A090010B50C466FF0004113462246CC
S32500004B20BDE81040FFF7E0BE164B10B51B6823B35A6822B3DC681CB3A168013A5A60D96086
S32500004B4031B92AB121881048C1F30B01FFF7B8FD21686FF3173121600B0E6FF30713E37082
S32500004B60C1F30B010023A36011B90848FFF7A8FDE37843F01003E37002E01C4600E0144622
S32500004B80204610BD3009200073390A00AF390A0000210A2200F0B8BA4260C2600160816026
S32500004BA0704700BF002330B5044618468B4207D0E25C1AB1551E01302A40FAE70133F5E71D
S32500004BC030BD00BF0EB417B505AB044653F8042B03C80193FFF788FE411C02D06368984272
S32500004BE002DB0023636004E01B1A636023680344236003B0BDE8104003B07047002213B5BF
S32500004C0001920F4A034612680C46BAB110B109B1884205D1194622460A48FFF751FD0DE0BD
S32500004C20126890420AD8914208D800F03FF901A900F05CFA036864F31733036002B010BD87
S32500004C4030092000243A0A0070B5A0F5804503460C460846054E1146054AB5F5C04F98BF1C
S32500004C603246FFF75DFD204670BD00BF2F9D0A00DDE00A0010B512F1FF3205D3845C8B5CDF
S32500004C809C42F8D0E01A10BD002010BD38B503460C4641B138B145780846194602352A4640
S32500004CA02C44FFF799FC204638BD00BF10B50B4648B1012A07DD44780234A24203DBBDE862
S32500004CC01040FFF7E3BF184610BD00BF37B50D4600241022013401A900F016FA2B1903F849
S32500004CE0010C019B581C1B780BB1062CF1D1A31F5842584103B030BD70B50A4600230B4CCA
S32500004D003A25C65C03323609A65D02F8036CC65C0133062B02F8015C06F00F06A65D02F846
S32500004D20026CEED100234B74084670BD413D0A002DE9F341089D019117461E46044608B90E
S32500004D40002025E00129FBDD437802339942F7DB05F1020822786378DD2A07D0204601A926
S32500004D6000F064F904460028F4D1E9E79845F5DA3946A01C0322FFF71DFC0028EED135B1F1
S32500004D803146601D2A46FFF715FC0028E6D1204602B0BDE8F08100BF012B2DE9F04F87B01E
S32500004DA082460D4616469B464FF0000841DD002A41D01446474682F80080002D37D00AEBEB
S32500004DC008035AF808905968B9F1000F08D1102102A82B461A4A4D46FFF7A2FC02A902E021
S32500004DE019EA050F19D008460191FFF7E3FC25EA090507448146019905B10137BB450FDD55
S32500004E00204609F101024C44FFF7FAFC2DB1204602210C4AFFF784FC044408F10808CCE776
S32500004E202DB120460221084AFFF77AFC0444A01B02E0404600E0104607B0BDE8F08F00BF0C
S32500004E405E3A0A006F3A0A00A35D0A00144A38B51368044615460BB35A681B6801889A421A
S32500004E6006D11048C1F30B01BDE83840FFF728BCC1F30B0189B211B90B48FFF721FC2B6888
S32500004E80DA68A2605A68DC6001325A6023686FF3173323601B0E6FF30713E37038BD00BF77
S32500004EA030092000D2390A00043A0A0050B1064B1B681A68904204D89B680C2202FB0030D3
S32500004EC070470020704700BF30092000018910B5082917D8DFE801F00D05050505050505CF
S32500004EE00900032A0BDD002010BD43899A42FADA05E03BB1002AF6D06FF00E0010BD6FF0CB
S32500004F000D0010BD6FF0160010BD00BF1FB50C4641780378009181780191C278102102923B
S32500004F202046034AFFF7FCFB204604B010BD00BF523A0A002DE9F041028805460024944279
S32500004F4030D205EB8407FB6853B35842184000F05DFAC0F11F0808EB441405EB8406F06936
S32500004F6000F040FAFB68B0F1010EDEF1000050EB0E0000FA08F883EA0803FB60F3695F420C
S32500004F801F40384600F042FAAB88C0F11F00013BAB80F36900EB44105F40F761BDE8F081F0
S32500004FA00134CCE74FF0FF30BDE8F081838801F01F0270B5013B4E098380044600EB8603E9
S32500004FC006F01F0601200D469040DA69AD0A5040D86100F007FA04EB8504D0F1010038BF87
S32500004FE00020E36800FA06F67340E36070BD00BF83884A0970B5013300EB820401F01F062A
S32500005000838002F01F020123890AE56903FA06F600EB81003543E561C16893401943C160D3
S3250000502070BD00BFB0F90400704700BF0A6810B5012A01DC002010BD4478A31C9A42F9DB04
S3250000504020446FF001031B1B02301344012B0B60F0DD427802329342ECDB10BD10B501291A
S325000050600DDD03784478934202D1631C8B4207DBA31C18446FF001031B1B1944EFE700202C
S3250000508010BD00BF10B51C46FFF7E8FF08B9002010BD4378A342FADB10BD00BFF8B50F46C9
S325000050A00E490024002818BF014625460C481646FFF706FBB5420CDA0A480134795DFFF7E7
S325000050C0FFFA102C03D108480024FFF7F9FA0135F0E70548BDE8F840FFF7F2BAE21A0B0084
S325000050E0773A0A00713A0A005B690A0038B50D4601240368C3F30B3323B118460134FFF74B
S32500005100D5FEF6E72C6038BDF0B5304F0478034601303D5DDFF8B4C005F0200505F0FF0645
S32500005120002DF3D12B2C08BF034605D02D2C08BF034614BF0026012662B91A78302A15D1C6
S325000051405A7802F0DF02582A07BF10220233082201330CE0102A0AD11878302807D1587806
S3250000516000F0DF00582802D1023300E00A2200201D4601332C781CF8047017F0440F02D1B6
S32500005180F6B140421CE017F0040F01D0303C03E0BF074CBF573C373C9442F1D202FB0044F9
S325000051A084420BD256B971B12B4601351A781CF8022012F0440FF7D10B6004E02046D7E716
S325000051C019B10D60F0BD4FF0FF30F0BD9A8A0900F0B585B0012B06461C460291039219D9CF
S325000051E000254FF0FF37029B03997BB1B7FBF4F202A803FB02556243009103A95242B2FBF0
S32500005200F4FE04FB1E2200F007F8ECE7B1FBF4F42544356005B0F0BD2DE9F74F1D0C9BB2CF
S32500005220140C92B203FB02F963436A43019329F000464FEA03480C9B28F000474FEA024CB4
S325000052404FEAD37B2CF0004A37440BEBD97927F0004609EBD87808EBDC7C56440CEBD777CD
S3250000526026F0004A07EBD67623F00047BA44019F120C06EBDA762AF0004A02EB174316F082
S32500005280010F05FB04340CBF4FF0000C4FF0004C04EB56064CEA0A0306600B6003B0BDE868
S325000052A0F08F00BF38B515461C4663B1FF2A0AD801B942B9207065701DB12A46A01CFFF7D7
S325000052C08BF902352C44204638BD00BFFF2A70B5049E1D4606D8941CB44203DCBDE8704078
S325000052E0FFF7E0BF284670BD2DE9F04117461E460C4600EB0108B442C4EB080507D3284630
S3250000530039463246FFF75EFA20B1013CF3E70020BDE8F0812846BDE8F08100BF2DE9F0419A
S3250000532088B00AB10023137000231C464DF803400433202BFAD1012711F8013B08AD5C09ED
S3250000534003F01F0605EB840407FA06F654F8205C354344F8205C002BEED1016801250C46F7
S325000053600DF1200811F8013B5E0903F01F0708EB860605FA07F756F8206C374204D0002B6E
S32500005380EDD12546012610E0202BE8D0F9E74F090DF1200801F01F0C08EB870706FA0CFCC1
S325000053A057F8207C1CEA070F05D129782B4601350029ECD105E002B111700022013303F872
S325000053C0012C03609C4214BF2046002008B0BDE8F08100BF002310B101334008FBE7C3F17D
S325000053E020007047084BC2B282B0995CC0F307229A5C0A44C0F30741000E595C185C0A4442
S32500005400104402B0704700BF9A8B0900FFF7E2BF08B500F039F828B100210A46BDE8084030
S32500005420FFF772BE08BD00BF37B5154600F02CF880B100240BE0002201A9FFF765FEAC420E
S3250000544009D00198013403782C2B08BF01300378002BF0D1002003B030BD00BF13B500F037
S3250000546013F870B10024037853B1002201A9FFF74BFE0198013403782C2B08BF0130F2E7DB
S32500005480204602B010BD00BF70B504460D4609B9002070BD0846FFF78DF906460028F7D08C
S325000054A094B1237883B1204629463246FFF782F828B9A35D3D2B02D10136A01970BD14F8D0
S325000054C0013B002BFBD1EBE72846BDE870400BF003BA00BFCB0801F00701012202FA01F1AA
S325000054E0C25C22EA0101C154704700BF028910B54AB10368013A1C6859680C601C68616008
S325000055000281184610BD104610BD00BF036848600B6001600B6859600389013303817047EF
S3250000552008B504490622FFF745F8D0F1010038BF002008BD7492090008B504490622FFF72B
S3250000554039F8D0F1010038BF002008BD80920900044B1B78012B02D1002000707047FFF73D
S3250000556057BF00BFBC072000044B1B78012B02D1002000707047FFF757BF00BFBC07200097
S32500005580044B1B78012B02D1002000707047FFF765BF00BFBC072000044B1B78012B02D140
S325000055A0002000707047FFF76FBF00BFBC07200003460144074810B58B4208D213F8014B38
S325000055C05440E4B250F8244084EA1222F4E7104610BD00BF748D090003460144054810B5E6
S325000055E08B4204D013F8014B6240825CF8E7104610BD00BF74910900CB0801F00701C05C76
S32500005600084100F0010080F001007047012201F00703C90802FA03F3405C1840704700BFD7
S325000056202DE9F84333EA230628BF4FF48056174B0C46DDF820801968994644B152B1238A9F
S325000056409A4207D3D21AA38B51F82340F5E72046BDE8F8830025AEB1278AE168BF1ABE420F
S3250000566038BF3746404611443A46B844FEF7B4FFA38BD9F80020F61B52F823403D440CB196
S325000056800022E8E72846BDE8F88300BF8C072000212928D98389082B0BD1837B1909042960
S325000056A001D1C37B19E0062919D11B01C17BDBB211E0812B17D1252915D9038A082B12D179
S325000056C0837C1909042901D1C37C06E0062906D11B01C17CDBB243EA11139B0800E000239C
S325000056E01370012070470020704700BF044B1A688B8B52F823300BB11946F9E7084670472F
S325000057008C0720002DE9F047A0B089469046014620B1027812B11948FEF7D2FF0026802547
S325000057206C466F46464520D016F00F0A07D120462946134A3346FEF7F3FF04442D1A002D3C
S3250000574008DD204629460F4A19F80630FEF7E8FF04442D1ABAF10F0F05D10B486946802538
S32500005760FEF7AEFF6C460136DCE7BC4203D006486946FEF7A5FF20B0BDE8F087633A0A00DB
S32500005780683A0A00713A0A0026B80A002DE9F04116468E4205460F461A462CD30C46FB08F3
S325000057A0F208D11A01291DD9FF210133D7004FEAC30808F1FF38934202D2E9540133FAE784
S325000057C0444505D821460134284600F019F8F7E7B74205D839460137284600F011F8F7E7A2
S325000057E0BDE8F08121460134284600F009F8B442F8D9BDE8F0810024FFF7C8FF2746CEE7B2
S32500005800CB0801F00701012202FA01F1C25C1143C1547047C0F3C220072802D0024B185C10
S3250000582070470020704700BFAA9209000A231438B0FBF3F0C0B270470023064A995C88426E
S3250000584001D1184670470133062BF7D14FF0FF30704700BFA492090010B504460846FFF7B8
S32500005860E5FF201AC0B210BD10B51446FFF7F4FF00EB8400C0B210BD38B50D46114614461E
S32500005880FFF7EAFF281A830708D11423B4FBF3F48008A04228BF4FF0FF3038BD4FF0FF308F
S325000058A038BD00BF052802D8024B185C70470020704700BFA49209002DE9F0470E288CBF0C
S325000058C04FF440494FF00009B1F5C05F49EA010980461FFA89F917D0B1F5005F18D0B1F5D1
S325000058E0205F19D0B1F5605F08D031F4006305D0B1F5805F02D00020BDE8F08749EA0808CA
S325000059001FFA88F0BDE8F0870C26114C282706E00626104C502702E002260F4CA02725467A
S32500005920AA46013541469AF800003A46FFF7A4FF002808DB9AF8008049EA080949EA002055
S3250000594080B2BDE8F0872B1BB342E9DBD3E700BF98920900A49209009692090041F2CE23B4
S32500005960994203D1431E0D2B03D909E0C82802D906E00E2807D00523584300EB51007047A0
S325000059804FF0FF30704740F6B41070472DE9F04106460F460024DFF82C8034F808503543A0
S325000059A06FEAC5456FEAD545ADB2284600F00CF8874203D00234082CEFD1FF252846BDE84D
S325000059C0F08100BF8692090038B500F46053B3F5605F044605D010F4405F02D0B3F5805F5A
S325000059E001D1E0B238BDB3F5405FC0F3022505D1074B00F00F045021185D03E0FFF70AFF34
S32500005A000146E0B22A46BDE83840FFF72DBF00BFA492090000F46053B3F5605F10B504461D
S32500005A200DD010F4405F0AD0B3F5805F07D0FFF7CBFF40F4805004F440440443A4B2204665
S32500005A4010BD00BF2DE9F0410646084617468846FFF7F2FE04463846FFF7EEFE621C05464F
S32500005A6002D1FF20BDE8F081431CFAD0404631465022FFF701FF002809DA38463146502218
S32500005A80FFF7FAFE0028ECDB23462C461D466FEA04546FEA145444EA051444EA002080B2AC
S32500005AA0BDE8F08110F4404200F460530CD1B3F5605F28D010F4405F25D0B3F5805F22D050
S32500005AC0B3F5C05F3BD12BE0B2F5404F37D1B3F5405F08D100F00F03052B30D8C0F3031381
S32500005AE0052B27D92BE0B3F5605FC2B229D010F4005F00F4405103D0B1F5005F1FD107E0FA
S32500005B00E02A1CD831B910F4E06F18D100207047E02A14D8B3F5805FF5D0B3F5C05F04D1A6
S32500005B2000F4E060B0F5807F08E000F42053B3F5005FEBD100F4E060B0F5407FE6DD0120F9
S32500005B407047E02ADFD9FAE773B504460D46FFF7A9FF00285ED114F4404307D12F4BE6B2B6
S32500005B602F4A0E2E8CBF16461E460BE0B3F5404F07D12A4BE6B22B4A0E2E94BF16461E4694
S32500005B8000E0264E2046FFF71FFF034604F46052B2F5805F07D1009014212846224A3346C8
S32500005BA0FEF7BEFD20E0B2F5405F1FD0D0121F49B2F5C05F51F820100ED11D4A04F47C5463
S32500005BC01C492846B4F5C85F14BF0C4614468DE818001421184A04E0019128461421174AFF
S32500005BE000933346FEF79CFD284614E0284604F00F02052AC4F3031496BF11490021895C7E
S32500005C00052C8EBF00220E4A125D8DE8060014210C4AE7E7002002B070BD00BFE21A0B007E
S32500005C20513D0A00543D0A00573D0A00B492090040CB0A007A680A005C3D0A00633D0A00F0
S32500005C40A49209006B3D0A0038B505460C46FFF77BFF28B920461421024A2B46FEF760FDC8
S32500005C60204638BD7A3D0A0000F46053B3F5405F10B5044602D0B3F5205F01D100F034F81E
S32500005C8000F46053B3F5005F0DD1084CC3B200F4E060B0F5007F32BF043B0433A0F50070E5
S32500005CA018430443A4B2204610BD00BF00D8FFFF00F46053B3F5005F12D0B3F5405F03D173
S32500005CC000F00F00FFF7EEBDB3F5205F0AD1C3B2C0F30220032894BFA3F1080003F10800BC
S32500005CE0C0B27047FF20704700F46053B3F5005F10B5044622D0B3F5405F0AD100F00F00CF
S32500005D0004F4E06444F46044FFF7CCFD204384B214E0B3F5205F10D100F4E064C3B2B4F5BB
S32500005D20806F32BF083B0833A4F580641C436FEAC4446FEAD444A4B200E0FF24204610BDC5
S32500005D4000F46053B3F5405F03D1C0F30310FFF7A9BDB3F5205F0AD1C3B2C0F302200328E2
S32500005D6094BF03F10800A3F10800C0B27047FF20704700BF10B50446FFF794FE002868D17C
S32500005D8014F4404104F46053E2B212D1B3F5605F05D014F4405F02D0B3F5805F02D1013A08
S32500005DA00D2A04E0B3F5C05F53D1033A082A50D851E0B1F5404F4CD1B3F5405F0ED12A4B22
S32500005DC0C4F3031204F00F049A5C1B5D03F110018A4240DC103293423BDD3CE0B3F5605FDD
S32500005DE002D014F4405F02D10023204C15E0B3F5805FF9D0B3F5C05F22D0B3F5005F2CD0C1
S32500005E00B3F5205F25D12BE0DD298CBF002102318A4211D001330C2B07D0195D022994BFCC
S32500005E200020881E8242EFD106E0A52A13D002F0F302222A0DD10EE00C218B4209D20AE0BC
S32500005E400C210A480023C45CA242F6D001338B42F9D3002010BD012010BD06210248F1E7DF
S32500005E6002210348EEE700BFA4920900989209009692090030B585B0032403900291039875
S32500005E800299DD22FFF7EAF8054648B1092303A9019302AA0094044B00F06EF80028EED00F
S32500005EA0284605B030BD00BF32360A00F0B585B015461E4603900291032703980299DD227D
S32500005EC0FFF7CCF80446D0B1022303A9019302AA00970C4B00F050F80028EED0617802310E
S32500005EE0052905D9A379AB4202D1B31C994206D0039B0B440393029B591A0291DCE72046E5
S32500005F0005B0F0BDD62C0A0030B585B003240390029103980299DD22FFF7A0F8054648B19F
S32500005F20012303A9019302AA0094044B00F024F80028EED0284605B030BD00BFD62C0A009B
S32500005F4030B585B003240390029103980299DD22FFF784F8054648B1042303A9019302AAD6
S32500005F600094044B00F008F80028EED0284605B030BD00BFD62C0A00F8B5069D1746427820
S32500005F80044695420E460ADB6378002002331C4433681A1B3B6813443B603460F8BD194604
S32500005FA002302A46FEF706FB0028EDD125449DF81C30AA789A42E7D10120F8BD30B5032976
S32500005FC00FDD8478C378057843EA04234478043344EA0524944201D18B4203DD1844C91AE9
S32500005FE0EDE7002030BD00BF70B50C461146032205461E46FEF7DEFAA8B9EB78013B042B5D
S3250000600026D8DFE803F0070325050B00022307E0042305E0E6B10120208070BDC6B1032349
S325000060202380012070BD28460A490322FEF7C2FA70B96EB1EB780833092B05D00A2B05D0D9
S32500006040082B06D10723EBE70823E9E70923E7E7002070BDD22C0A0070B50C46164631499D
S3250000606003220546FEF7A6FAC0B9EB78062B57D8DFE803F04C0406080B0E110040234CE008
S3250000608080234AE044F2400347E04FF4814344E04FF4805341E04FF400433EE028462249AE
S325000060A00322FEF787FA20B9EB78012B39D1402230E028461D490322FEF77CFA30B9EB78AB
S325000060C07BBB0EB9102328E0082326E0284618490322FEF76FFA60B9EB78012B03D015D39C
S325000060E0022B03D070BD4FF4806213E04FF4006313E028460F490322FEF75CFA80B9EB78EA
S32500006100012B06D002D3022B06D070BD0120206070BD0222226001E004232360012070BD25
S32500006120002070BDDA2C0A0032360A00D22C0A00DE2C0A00D62C0A0038B503220C461A499B
S325000061400546FEF737FA18B9EB78022B2AD816E0284616490322FEF72DFAEB7818B9012B01
S325000061601CD0206018E00B2B14D8DFE803F006080B130D0813131313130F002308E00120FE
S32500006180206038BD022303E0042301E04FF48073236001E0002038BD012038BD18464FF40E
S325000061A08072226038BD00BFD22C0A00DE2C0A0049F2D0130340181C18BF0120704700BF92
S325000061C010F00F0018BF0120704700BF20F4804040280ED080280CD010280AD0B0F5807FE8
S325000061E007D0B0F5805F04D0B0F500435842584170470120704700BF431E012B08D9082863
S3250000620006D0B0F1040CDCF1000050EB0C007047012070470138C0B20A2803D8024B33F81E
S3250000622010007047002070472E3E0A002DE9F04F87B01B4E03AC82468946306871689B46B7
S32500006240337A119D03C4904603A82370129FFEF7B1FA024603A92846FEF7BEF903A8FEF703
S32500006260A9FA0446514628180622FEF7B5F94946A01D28440622FEF7AFF90023019304F160
S325000062800C03404659462A46009701F083FA109839461022FEF7A0F907B0BDE8F08F00BFCE
S325000062A09D3D0A002DE9F04FBFB02F4C04AD9046834604F110028A4699464B9E2F462068C9
S325000062C0083454F8041C2B46944203C31D46F6D12068A2881860A3791EACAA80AB715946E4
S325000062E052460623002000F047F8014606222046FEF772F9594652460623012000F03CF8AE
S325000063000146A01D0622FEF767F9494642462023002000F031F8014604F10C002022FEF7E4
S325000063205BF9202349464246012000F025F8014604F12C002022FEF74FF93846FEF73AFAED
S3250000634000940AAC4C220346019249993A4602940396489801F0F6F94A9821463246FEF79C
S325000063603BF93FB0BDE8F08FC73D0A001346014AFFF73ABEDA2C0A0070B500249C420DD01C
S325000063800D5D165DB54201D10134F7E718B1AE4288BF114602E0AE4238BF1146084670BD4C
S325000063A02DE9F043B9B0254C0746206890469946A288A379029002A88DF80E300E46439DB1
S325000063C0ADF80C20FEF7F6F9024602A918A8FEF703F902A8FEF7EEF9044618A849462044DB
S325000063E02022FEF7F9F8414618AB202204F120001844FEF7F1F8394618AB062204F14000F5
S325000064001844FEF7E9F8314618AB062204F14600184404AEFEF7E0F8409818AA419904F163
S325000064204C030096019501F01DFA429831462A46FEF7D2F839B0BDE8F08300BFC03D0A008C
S325000064402DE9F043BBB017463A4A3B4E814610689846938802903068B288ADF80C30B3796F
S32500006460049002A80D46429C8DF81630ADF81420FEF7A0F9024602A91AA8FEF7ADF802A87C
S32500006480FEF798F949463AAB2A46461C184400F8805C1AA83044FEF79FF870193AAB034483
S325000064A0C51C414603F8807C1AAB03443F0A5F703AAB1844224600F87E4C1AA82844254451
S325000064C0FEF78AF843991AA8284406AC0622FEF783F830231AAA0193AB1D4498459900942A
S325000064E001F0C0F9214620224698FEF775F804A8FEF760F9024604A91AA8FEF76DF804A84C
S32500006500FEF758F905461AA8284404F120011022FEF762F822461AA8002305F1100101F0DA
S32500006520DBF9479821461022FEF756F83BB0BDE8F08300BFA63D0A00AC3D0A002DE9F047D7
S32500006540BAB0374C07469A462068A388354C029020689146ADF80C30A288A37906AC049089
