S00C0000726F6D6C2E737265635E
S3150000004041EA020303439B0730B510D104680B68ED
S315000000506340136044684B686340536084688B68F0
S3150000006063409360C068CB684340D36030BD0023D3
S31500000070CD5CC45C6C40D4540133102BF8D130BD38
S315000000802DE9F04F8DB04FF001080CAC064604F890
S31500000090208D0D469146114604EB08000D229B4625
S315000000A0199F04F07BF800238DF81E30179B30460D
S315000000B02946A3F1080A189B22468DE88800534674
S315000000C08DF81F8000F0BAFA10B14FF0FF3028E02B
S315000000D0189B07EB0A0853448DF81E008DF81F0085
S315000000E08DE80801304629462246082300F0A6FA84
S315000000F00028EAD1169B08AC02978DE80804039401
S31500000100304629464A465B4600F05AF80028DCD1BC
S3150000011020464146082204F02FF8003818BF6FF039
S3150000012000000DB0BDE8F08F2DE9F04F8DB04FF017
S31500000130010A0CAC074608AD0E469346114604F874
S3150000014020AD0D2204EB0A009946DDF85C8004F030
S3150000015025F80022189B8DF81E208DF81F20169A70
S3150000016002938DE804010395384631465A464B46BC
S3150000017000F026F810B14FF0FF301EE00095019513
S31500000180384631462246082300F058FA0028F2D1B4
S31500000190294608221A9804F001F8189B384600935D
S315000001A0199B31460193224643468DF81FA000F065
S315000001B045FA003818BF6FF000000DB0BDE8F08FAB
S315000001C02DE9F04589B0B3F57F4F80460F461D46B1
S315000001D0DDF840A0119E74D20BB9192300E0592313
S315000001E011460DF101000D2204ACC7F39A078DF8F4
S315000001F00030063703F0D2FF330A8DF80E30404642
S3150000020039466A4623468DF80F6010F0E5F95DB36E
S315000002109DF8103083EA15238DF810309DF81130C3
S315000002206B408DF8113055440223AA4514D01AF8B4
S31500000230010B08AA1A440133102B12F8101C80EA8D
S31500000240010102F8101CF0D12346404639462246E9
S3150000025010F0C2F90023E8E7190705D040463946F1
S315000002602246234610F0B8F94FEA161A0025129BCB
S31500000270554503EB05110BD0204601352246FFF705
S31500000280DFFE404639462246234610F0A5F9EEE742
S31500000290002306F00F02934205D2E05CCD5C684075
S315000002A0E0540133F7E72AB1404639462246234651
S315000002B010F092F913982146082203F06FFF0020F0
S315000002C001E04FF0FF3009B0BDE8F0852DE9F04FB1
S315000002D085B005460E9C18468946924600210D2299
S315000002E01E4603F0ABFF1E222046002103F0A6FFA8
S315000002F02F88C7F3810307F4407BBBF54070D0F12C
S31500000300000B5BEB000B022B0CBFC7F3C0130023E3
S3150000031003F0FF0203923BB1BBF1000F0CBF1823A1
S315000003201E2335F8038001E0DDF80C80039ABBF14B
S31500000330000F14BF0623002302B10233109A03F103
S315000003402001304603F1180C116003F116010F9AD3
S3150000035005EB0C03116005F10A0100F801AB06225A
S315000003600293CDF804C003F019FF029BDDF804C028
S31500000370DA79F2719A7932725A7972721A79B2729C
S315000003805B78F37215F80C303373B9F1000F0CD1AA
S31500000390BAF1FF0F02D01AF0100F02D027F46057FF
S315000003A005E04CF28F733B4002E027F40067BBB2D6
S315000003B02370A01C1B0A291D6370122203F0EEFE97
S315000003C0EB8AB9F1000F02D103F00F0300E000231E
S315000003D0237504F1160000236375BBF1000F06D0E8
S315000003E0062205F1180103F0D9FE04F11C00039B57
S315000003F07BB1B9F1000F06D180F8019008F00F0823
S3150000040080F8008005E080F800804FEA182880F820
S31500000410018005B0BDE8F08F2DE9F04192B01D4690
S3150000042004AB01930AAC074605AB0E469046029311
S3150000043006AB28469DF860109DF864200094FFF7EF
S3150000044045FF059B06AA00941D44C3EB08030193D0
S315000004500295039538463146049BFFF711FE0028A6
S3150000046014BF6FF00100002012B0BDE8F08100BF9C
S315000004702DE9F04194B01C4606AB01930CAD16462F
S3150000048007AB80460F46029308AB20469DF86810DE
S315000004909DF86C200095FFF719FF079A0095A318A1
S315000004A0B21A3444019208AA029303930494404674
S315000004B03946069BFFF738FE003818BF6FF000007C
S315000004C014B0BDE8F08100BF2DE9F0418CB00746BD
S315000004D0129C8846139E1CB104F10F052D0900E0FD
S315000004E0012529018C4204D11046A4F110013144A2
S315000004F01CE000221039641A7018A24202F10101B0
S3150000050005D010F802E00DF802E00A46F5E70CA85F
S315000005100244802002F8300C0A4600210F2A03D834
S315000005200DF802100132F9E7184669466A460124B9
S31500000530FFF786FD002108A8102203F07FFEAC42DB
S3150000054008A80CD2314604AAFFF77AFD404604AA51
S31500000550394608AB10F040F801341036EFE769462B
S3150000056004AAFFF76DFD404604AA394608AB10F011
S3150000057033F8159A08A91498102A28BF102203F0F8
S315000005800DFE0CB0BDE8F081DB0070B5C8B05C09AB
S31500000590054606340E460CA811461A4610F094FA83
S315000005A020460CA904AA08AB00F00EF84C9B0CA937
S315000005B0009604AA02934D9B0195039308AB20462F
S315000005C0FFF782FF48B070BD7FB506461446084661
S315000005D0184A1D4631466B460FF0FEFF0F220023D8
S315000005E01DF8021043EA4103A35412F1FF324FEA09
S315000005F0D113F5D29DF90030002B04DA20460E49BE
S315000006002246FFF71DFD0F220023A15C43EA4103AA
S31500000610AB54A35C12F1FF324FEAD313F5D294F92F
S315000006200030002B04DA284603492A46FFF708FD66
S3150000063004B070BDDC530800CC530800B3F5801F2E
S315000006402DE9F04F89B082468B461C4646D8CBF33F
S315000006509A0B0DF1100811460BF1060B40461022BD
S31500000660260903F09BFD00254746DDF84C80129BCA
S31500000670B5424FEA0519C844994418D06B4650460E
S3150000068059463A460FF0A8FF484669464246FFF7E4
S31500000690D7FC9DF81F300133DBB28DF81F3023B92C
S315000006A09DF81E3001338DF81E300135DDE714F05C
S315000006B00F0401D1002013E06B4604AA50465946A8
S315000006C00FF08AFF002319F803201DF803104A4093
S315000006D008F803200133A342F5D1EBE74FF0FF30D2
S315000006E009B0BDE8F08F00BF70B5BCB0C4001546B8
S315000006F0684622461E4610F0E7F96109684606314B
S315000007002A4633460FF068FF3CB070BD2DE9F04F26
S31500000710ADF52D7D1D4620F00803102B03D02028B3
S3150000072001D001246CE0B2F5C47FFAD812F00708B4
S31500000730F7D1C700A2F108063A460EA806AC10F09B
S31500000740FFF829460822204603F028FD4FEAD6097D
S315000007504AA8324605F1080103F020FD05235FFA99
S3150000076089FB03FB0BF37F090637DBB20297049381
S315000007704AAB062703EBC9030393049B09F1FF3534
S315000007804FF0000A4344DBB2013305936B1CAAF118
S31500000790080A22D0059A08A8DDF80CC0E379D444EB
S315000007A02A44013D614653400822E371CDF804C056
S315000007B003F0F4FC02990AAB22460EA80FF052FD94
S315000007C008220AA9204603F0E9FCDDF804C00CA9BA
S315000007D00822604603F0E2FCD8E7013FCBEB0808AD
S315000007E05FFA88F8C9D1094906A8082203F0C4FCB3
S315000007F00446002895D1B6984AA9324603F0CEFCA5
S3150000080020460DF52D7DBDE8F08F00BFEC530800A6
S315000008102DE9F04FADF5277D1E4620F00803102B7D
S31500000820144601D0202859D1B4F5C07F56D814F00B
S31500000830070753D14FEAC00A0AA8524646AD10F040
S3150000084043F9294902A8082203F0A8FC4FEAD40874
S3150000085031465FFA88FB284622464FEA5A1A03F0C9
S315000008609DFC06260AF1060AAC460025454523DA14
S315000008700CEBC50904A849460822CDF804C003F0CC
S315000008808DFC514606AB0AA802AA0FF0A5FE082267
S3150000089008A9484603F082FC082202A806A903F02C
S315000008A07DFC9DF80F207B1C2B44013553408DF8B1
S315000008B00F30DDF804C0D9E7013E5F44FFB2D4D162
S315000008C0082202A9B09803F069FCB09B46A922460B
S315000008D003F1080003F062FC304600E001200DF54C
S315000008E0277DBDE8F08F00BFEC53080008B50A4627
S315000008F0D0F89830D0F8880009B9203002E00129F4
S3150000090003D1403053F8200008BD0349034803F0E3
S31500000910B9FC002008BD00BFABF908004AF9080081
S3150000092010B5D0F88840D0F89830103453F82440E9
S3150000093040F627039C4205D109490A4803F0A2FC68
S31500000940002010BDD0F8903001B932B1D3F80804B8
S3150000095020EA01010A43C3F80824D3F8080410BDAD
S31500000960B7F8080082F9080073B5D0F890400E4633
S31500000970D4F80038D90728D41F25D4F8043893B9F9
S315000009800120C4F80008D4F800380193019B8CF0CC
S31500000990C3FEC4F80864D4F808340A200193019B06
S315000009A08CF0BAFE11E0013D03D00A208CF0B4FEB3
S315000009B0E3E740F2E935D4F80438002BE0D0013DF6
S315000009C0DED00A208CF0A8FEF5E702B070BD00BFAD
S315000009D0F8B5D0F888501646D0F8983005F1A00240
S315000009E0044653F822300F465BB1294600F09AF8C8
S315000009F020463946324600F0A9F82046294600F03E
S31500000A008DF8204639463246BDE8F84000F09EB8DB
S31500000A1010B5D0F88840D0F89830103453F82440F8
S31500000A2040F627039C4205D109490A4803F02AFCEF
S31500000A30002010BDD0F8903001B932B1D3F80005CE
S31500000A4020EA01010A43C3F80025D3F8000510BDCA
S31500000A50A8F8080082F908000F2970B5049CD0F8A0
S31500000A60980013D850F8215000EB81061DB9D6F82E
S31500000A70805040F8215050F8211003B924B188580D
S31500000A8020EA03031C438C50885870BD002070BDBB
S31500000A90D0F89820D0F8883002EB830393F803133C
S31500000AA000F08EB970B5D0F88850D0F8983004466A
S31500000AB005F1100253F8222040F627039A420CD182
S31500000AC0002100F02BF8204600F00EF806462946D5
S31500000AD0204600F023F8304670BDD0F89030D3F8A9
S31500000AE0000100F01F0070BDD0F89030D3F800016F
S31500000AF0C0F30420704700BFD0F89030D3F8082424
S31500000B0002F00302012A06D1D3F8000880F00100A2
S31500000B1000F0010070470020704700BF002200F07F
S31500000B20A5B800BF012200F0A1B800BF10B5D0F8EB
S31500000B309000890802B933B150F8214024EA020234
S31500000B40134340F8213050F8210010BD2DE9F7433A
S31500000B50064688461746D0F89890D0F890401F254C
S31500000B60D4F8043801932BB1013D03D00A208CF050
S31500000B70D3FDF5E7019B23B1019A3748374903F0C6
S31500000B8081FB0123C4F800380A201F258CF0C4FD20
S31500000B90D4F804382BB1013D03D00A208CF0BCFDFB
S31500000BA0F6E71F2547F0030747EA0807C4F8087465
S31500000BB0D4F808340193019BD4F8043801932BB17F
S31500000BC0013D03D00A208CF0A7FDF5E7019B23B178
S31500000BD0019A2348214903F055FB0A25D4F8003829
S31500000BE00BB3013D20D01F27D4F8043801932BB155
S31500000BF0013F03D00A208CF08FFDF5E7019B23B15E
S31500000C00019A1848154903F03DFB1F270023C4F835
S31500000C100038D4F80438002BE0D0013FDED00A209B
S31500000C208CF07AFDF5E745B9D6F888300E480B49C1
S31500000C30103359F8232003F025FB012048F0010367
S31500000C40C4F80834D4F808340193019B8CF064FD91
S31500000C5003B0BDE8F08300BFC6F80800B8F9080085
S31500000C60E4F8080002F908001FF90800D0F88C30F3
S31500000C70F0B5102B28BF10239942D0F8984028D2FF
S31500000C8004EB810354F82170D3F880C0D3F80062D6
S31500000C90D3F880520FB944F821C054F82140C0F867
S31500000CA08440D3F8C07117B90EB1C3F8C061D3F848
S31500000CB0406216B90DB1C3F8405212B1D3F84032B2
S31500000CC001E0D3F8C031C0F89030C0F88810204653
S31500000CD0F0BD0020F0BD00BF704700BF2DE9F04712
S31500000CE00AAE92460122134607460D4696E8400391
S31500000CF000F04EF8044600F00603042B08D1C0F3BA
S31500000D000323534504D1089B00F0C0029A4205D044
S31500000D102B680020043B2B60BDE8F087099A20F47D
S31500000D207F6323F00F03136010F0080307D000223F
S31500000D3038462946134600F02BF8306000E0336051
S31500000D40002604F03003302BC9F8006016D1324675
S31500000D5033463846294600F01BF8020720F47F6325
S31500000D6023F00F03C8F800300FD53846294632461F
S31500000D70334600F00DF8C9F8000006E01B094FF4F1
S31500000D80805202FA03F3C8F800302046BDE8F08727
S31500000D902DE9E04380460E4617469946404612F036
S31500000DA0EDFE356855F8040B35603FB1C307F5D540
S31500000DB00F2803D000EA07034B45EFD1BDE8E083D7
S31500000DC00846704708B560B1002907DB436802682A
S31500000DD01944914204DD034803F054FA002008BD8B
S31500000DE0012008BDC7F9080038B50D4602210446A2
S31500000DF0FFF7E8FF50B16368A2680220D15C1A448D
S31500000E000233527842EA01222A80636038BD00BF6D
S31500000E1038B50D4601210446FFF7D4FF30B16368AB
S31500000E20A2680120591C6160D35C2B7038BD00BFDD
S31500000E3070B504460D461646FFF7C4FF50B1636809
S31500000E40A168304619442A4603F0A8F96368284683
S31500000E502B44636070BD00BF002301604360826065
S31500000E600120704738B50D4602210446FFF7AAFF58
S31500000E7050B16368A2680220D118D25C0233497867
S31500000E8042EA01222A80636038BD00BF2DE9F7439C
S31500000E9089460DF10601044690461D460A9EFFF757
S31500000EA0E1FF18B9244803F0EDF90FE02768606800
S31500000EB0BDF80610874204DD381A814208DD024675
S31500000EC001E029B100221D4803F0DCF900202FE0E3
S31500000ED020464946FFF79CFF0028E3D020464146BE
S31500000EE0FFF796FF0028DDD02DB120462946FFF7F3
S31500000EF08FFF0028D6D02EB120463146FFF788FF57
S31500000F000028CFD0BDF80630002D0CBF02250325E2
S31500000F10002E0CBF1E465E1E751B0B9BADB2A26853
S31500000F201D8063680120D1180C9A1D44116065600C
S31500000F3003B0BDE8F08300BFE6F90800F4F9080045
S31500000F40704700BF2DE9F04786B0002604460D46DF
S31500000F50084610220021B04603F070F94DF6DD5A1E
S31500000F602368984536DAC4F80480C8EB0308B8F15C
S31500000F70030F2FDD20460DF10601FFF773FF204614
S31500000F8002A9FFF76FFF94E80C00BDF808709A42BB
S31500000F90CCBFC3EB0202002297421BDCBDF8061051
S31500000FA003EB07085145A268DAD102EB030903A84F
S31500000FB039464A46FFF750FF03A80DF10A0100F033
S31500000FC027F818B1AF60C5F80C9001E085E88002FB
S31500000FD00136C5E716B12846FFF7B2FF304606B020
S31500000FE0BDE8F08730B585B00C46054608220846B0
S31500000FF0002103F023F90023A21C0192221D029274
S31500001000621C009328462146FFF740FF05B030BD1D
S3150000101037B501AA0D4603210446FFF709FF28B19B
S315000010200F4901A8032203F0A7F820B10D4803F0E9
S3150000103029F9002011E020460DF10301FFF7E8FE33
S315000010400028F3D09DF80330092BEFD1204629461E
S31500001050FFF708FF0028E9D0012003B030BD00BF2C
S3150000106013FA0800E6F9080037B50D460DF106013A
S315000010700446FFF7CDFE18B19DF806306C2B04D060
S315000010800C4803F0FFF8002011E020460DF107019F
S31500001090FFF7BEFE0028F3D09DF80730022BEFD1F4
S315000010A0204629468CF098FA0028E9D0012003B0A2
S315000010B030BD00BFE6F9080070B504460D46164679
S315000010C0FFF7D0FE20B90B4803F0DCF8002070BD16
S315000010D094E8090029889842CCBFC3EB00000020A1
S315000010E08842F0DBA06818440B443060636001203E
S315000010F070BD00BFE6F90800704700BF38B5054669
S31500001100202208460C46002103F098F895E80C00CA
S315000011109A4202DDD31A022B03DC354803F0B2F8FB
S3150000112063E021462846FFF773FE2846611CFFF759
S315000011306FFE2846A11CFFF76BFE2378042B54D1C3
S3150000114063780A3B032B50D8DFE803F0020E4A27E8
S315000011502846211DFFF788FF0028DED0284604F127
S31500001160100104F1140237E02846211DFFF77AFE2C
S315000011700028D2D02846A11DFFF774FE0028CCD047
S31500001180284604F10801FFF76FFF0028C5D028465E
S3150000119004F1140104F118021EE02846211DFFF790
S315000011A061FE0028B9D02846A11DFFF731FE0028B0
S315000011B0B3D0284604F10801FFF754FE0028ACD04E
S315000011C0284604F10C01FFF74FFF0028A5D028465A
S315000011D004F1180104F11C02FFF76EFF00289CD0F1
S315000011E02046FFF789FF012038BD002038BD00BF2B
S315000011F0E6F90800704700BFF7B50446182208460E
S315000012000D46002103F01AF8204601AA0321FFF734
S315000012100FFE20B92848002603F034F849E0274994
S3150000122001A8032202F0A8FF06460028F2D12046B4
S315000012306946FFF7EDFD0028ECD09DF80030092B3C
S31500001240E8D16268374623689A422DDA62609A1AB4
S31500001250022A29DD20460DF10101FFF7D9FD2046BE
S315000012600DF10201FFF7FEFD22686168BDF802304C
S315000012708A42CCBFC1EB02020022934214DCA06872
S31500001280CA1801449DF801000D2806D0192807D078
S315000012900228D8D12B60696004E0AB60E96001E008
S315000012A02B6169610137CEE71FB128463E46FFF73D
S315000012B0A1FF304603B0F0BDE6F9080013FA0800B6
S315000012C038B50446022208460D46002102F0B6FF54
S315000012D094E80C009A4213DDD31A022B10D1204653
S315000012E02946FFF795FD18B9064802F0CBFF07E03F
S315000012F02046691CFFF78CFD0028F5D0012038BD7B
S31500001300002038BDE6F90800F7B505465222084622
S315000013100C46002102F092FF95E80C009A425CDD33
S31500001320284606212246FFF783FD18B92C4802F00D
S31500001330A9FF43E02846A11DFFF756FD0028F5D07A
S31500001340082128466218FFF773FD0028EED02846CC
S3150000135004F11001FFF75CFD0028E7D0217C042989
S3150000136003D8002604F111070AE01E48042223E0F0
S315000013703A4608370821FFF75BFD0028D6D001362C
S31500001380237C28469E42F3DB01A9FFF72DFD0028AA
S31500001390CCD0BDF8042041F211039A42C6D12846AA
S315000013A00DF10601FFF720FD0028BFD0BDF806109D
S315000013B0202905D90C48202202F064FF00200DE008
S315000013C0284604F13102FFF733FDBDF80630984296
S315000013D0ACD10444002384F83130012003B0F0BDC1
S315000013E0E6F9080017FA08003AFA080010B50C46A4
S315000013F078B100290ADB836843B190E80C001C44ED
S31500001400944205DD0348D21A02F03CFF002010BDCD
S31500001410012010BD56FA080038B50D4601210446D4
S31500001420FFF7E4FF28B16368A2680120591C6160D8
S31500001430D55438BD70B504460D461646FFF7D6FF9F
S3150000144050B16368A068314618442A4602F0A6FEE9
S31500001450636828462B44636070BD00BF2AB1002331
S31500001460016043608260012070471046704700BFEC
S3150000147038B50D4602210446FFF7B8FF58B1636838
S31500001480A2680220591C6160D5546368A268591C81
S315000014902D0A6160D55438BD38B50D460421044681
S315000014A0FFF7A4FFB8B16368A2680420591C616005
S315000014B0D5546368A268591C6160290AD1546368CF
S315000014C0A268591C6160290CD1546368A268591C32
S315000014D02D0E6160D55438BD2DE9F047099E894629
S315000014E0BDF82C50002B0CBF02210321003618BF7B
S315000014F001261F4673191944044689B29246D0F84C
S315000015000480FFF7B5FF49462046FFF785FF2046D2
S315000015105146FFF781FF27B120469DF82010FFF7BF
S315000015207BFF26B120469DF82810FFF775FF25B1F1
S31500001530204629460C9AFFF77DFF6068C8EB00003D
S31500001540BDE8F08710B586B000240393089B00948D
S315000015500493019402942346FFF7BEFF06B010BD24
S315000015607FB50093089B01939DF824300293BDF844
S31500001570283003930B9B04930123FFF7ADFF07B0BD
S315000015805DF804FB2DE9F04115460F464DF6DD5199
S31500001590044698464668FFF76BFF2046A91D89B2A8
S315000015A0FFF766FF03210B4A2046FFF743FF092199
S315000015B02046FFF731FF20463946FFF759FF25B190
S315000015C0204629464246FFF735FF6068801BBDE886
S315000015D0F08100BF13FA08002DE9F0410446904659
S315000015E01E46BDF820504768FFF756FF4146204685
S315000015F0FFF73EFF20463146FFF70EFF26B1204695
S315000016003146069AFFF716FF9DF81C102046FFF795
S3150000161003FF20462946FFF72BFF25B12046294622
S31500001620099AFFF707FF6068C01BBDE8F08100BF9D
S3150000163070B504460E4604214568FFF7EDFE2046C8
S315000016400C21FFF7E9FE20463146FFF7E5FE60680C
S31500001650401B70BD2DE9F04704468846042191469B
S315000016609A469DF82460BDF82C504768FFF7D4FED3
S315000016700D212046FFF7D0FE41462046FFF7CCFE5F
S3150000168049462046FFF7F4FE51462046FFF7C4FEC2
S315000016902046BDF82010FFF7EBFE26B12046314666
S315000016A00A9AFFF7C7FE20462946FFF7E1FE25B155
S315000016B0204629460C9AFFF7BDFE6068C01BBDE8B0
S315000016C0F08700BF2DE9F8430446884604211646F4
S315000016D09946BDF820504768FFF79EFE0A2120462E
S315000016E0FFF79AFE20464146FFF796FE26B12046B2
S315000016F031464A46FFF79EFE20462946FFF7B8FECA
S3150000170025B120462946099AFFF794FE6068C01B5A
S31500001710BDE8F8832DE9F047044688460421914642
S315000017209A469DF82060BDF828504768FFF774FE7A
S315000017300B212046FFF770FE41462046FFF76CFE60
S3150000174049462046FFF794FE20465146FFF790FE95
S3150000175026B120463146099AFFF76CFE20462946F7
S31500001760FFF786FE25B1204629460B9AFFF762FE53
S315000017706068C01BBDE8F08783682DE9F041054627
S315000017801BB1144B144C1E6802E0144B144C1E681B
S31500001790274605F11408386850B141461430062230
S315000017A002F0EAFC3F6807F29477F4E703F29474D8
S315000017B023684BB10130B042F8DB3146094802F0EC
S315000017C061FD0020BDE8F08125600120C5F8943751
S315000017D0BDE8F0819C0720007009200084072000E6
S315000017E07409200092FA080007B500220092092128
S315000017F0134600F0B3F803B05DF804FB38B50546B0
S315000018000C4611B10C2905D838BD296300F0D8F86B
S315000018106C6338BD0248BDE8384002F033BD00BFF6
S315000018201FFB08008368094A0949002B08BF0A46BE
S3150000183013684BB1834204D1D0F89437012013606A
S31500001840704703F29472F3E7184670477009200058
S3150000185074092000D0F8901738B500250446C0F862
S31500001860805721B1006815F013FEC4F89057002385
S31500001870C4F88837C4F88C3738BD00BF73B5024644
S315000018800C468CF061FF156820B106681146406869
S315000018902246B0472846214602B0BDE8704015F002
S315000018A0F7BD00BF70B58CB0044601A80E461546BC
S315000018B004AA2021FFF7D2FD324601A82B460021BB
S315000018C08BF0B2FE20469DF80810039A8BF0A4FE1A
S315000018D00CB070BD38B504460D4600F071F8002313
S315000018E0636320462946BDE8384000F09BBA00BF36
S315000018F038B50A4B0A4C0546002918BF1C46206815
S3150000190058B129461430062202F036FC08B9206880
S3150000191038BD246804F29474F1E738BD70092000DC
S3150000192074092000074A08B511680346006800F0EC
S315000019300DF830B91868044B1968BDE8084000F086
S3150000194005B808BD700920007409200021B1814244
S3150000195002D0D1F89417F9E708467047F7B5056B3A
S315000019600446082D089E1BD80C2919D800960D4E42
S3150000197056F82550A847636B226B9A4210D0E26B4B
S31500001980A56823631AB113B9204600F0C3FC3DB124
S31500001990236B2BB9204603B0BDE8F04000F09EBE95
S315000019A003B0F0BDF4530800014B1868704700BF40
S315000019B098072000014B1868704700BF8807200071
S315000019C0D0F87C1738B5044629B1006815F060FDDB
S315000019D00023C4F87C37636A00251A685968906842
S315000019E08BF0CAFFA36A1A68596890688BF0C4FF27
S315000019F0E36A1A68596890688BF0BEFF656304F164
S31500001A0044006587E563256429464FF4E56202F0E4
S31500001A1015FC84F8745784F8845738BD094B1B6845
S31500001A2023B183420CD0D3F89437F9E7064B1B68F1
S31500001A3023B1834204D0D3F89437F9E718467047A8
S31500001A4001207047700920007409200020B1007A37
S31500001A50D0F1010038BF0020704700BF38B54FF401
S31500001A6005710546006815F049FD044620B9084988
S31500001A70084802F007FC09E040F8045B05F1140190
S31500001A80062202F08BFB95F83830A372204638BD4B
S31500001A907DFA0800B2FA0800F8B505460E46174664
S31500001AA08CF052FE0368FBB12846FFF7D7FF0446C9
S31500001AB0D0B1B6F5007F4FF00003C360068207D9A8
S31500001AC00A484FF4007102F0DDFB4FF400732382E5
S31500001AD0394604F11200228A02F060FB28462146AC
S31500001AE0BDE8F840FFF7CABEF8BD00BFFFFA080020
S31500001AF007B5002200920A211346FFF72FFF03B015
S31500001B005DF804FB70B504460E4615468CF01CFEC7
S31500001B1003686BB12046FFF7A1FF014640B10322DF
S31500001B2006610575C2602046BDE87040FFF7A6BE97
S31500001B3070BD00BF07B50022009208211346FFF7CB
S31500001B400DFF03B05DF804FB036C828B10B586B005
S31500001B5093420446B0F84C3029DA009300F14E0364
S31500001B60019300F154030293B0F8603022460393C8
S31500001B7000F164030493A36C03C815F0E5FC10B1EF
S31500001B800F4802F07FFB236C2046E16D013323648E
S31500001B9000F004FDB4F84C2082B1636A19688868C5
S31500001BA05968002306B0BDE810408BF0D5BE2BB9AE
S31500001BB04F2106B0BDE81040FFF78CBE06B010BD41
S31500001BC031FB08007FB5436A04461A680D469068E3
S31500001BD059688BF0D1FEAA7894F83830934206D033
S31500001BE020463C2104B0BDE87040FFF773BE94F870
S31500001BF07437D4F878079D02401BB0F5806FD4F88F
S31500001C007C6799BF80B2002101214FF48060354482
S31500001C1011B143F0800301E003F07F030093A37E3C
S31500001C2002900193E18B03952046002300F0FEFB12
S31500001C300423636304B070BD38B5436A04461A686A
S31500001C400D46906859688BF097FEAB7894F838206B
S31500001C509A4202D020463C2102E0A98821B12046C2
S31500001C60BDE83840FFF736BEAB79190643D594F880
S31500001C70841703F07F03994235D12046298BEA6900
S31500001C8000F098F8224B1B6823B12046298BAA79CD
S31500001C90FFF738FF2B893BB92046E18B94F83820B3
S31500001CA000F0A4FB032312E0228C9A4211D3A26A0D
S31500001CB0116888685168174A126822B99B024FF466
S31500001CC07A72B3FBF2F200238BF046FE07236363BE
S31500001CD003E020460121FFF7FDFD94F88437013328
S31500001CE084F8843738BDB5D32046E18B00F07EFBFF
S31500001CF00323636338BD2046298BEA6900F05AF84E
S31500001D000123C4F880372046BDE8384000F01ABBEE
S31500001D10940720007C09200070B505460C4616463F
S31500001D208CF012FD0368BBB12846FFF797FE034609
S31500001D3090B162780D2A4FF0020208BFA179C26005
S31500001D40627818BF0021017602614661194628466D
S31500001D50BDE87040FFF792BD70BD00BF70B50D467F
S31500001D60D0F87C170446164629B1006815F090FB9A
S31500001D700023C4F87C37002384F87437AA0AC5F315
S31500001D800903002B14BF1346531EC4F8785784F872
S31500001D9075372068294615F0B1FBC4F87C0710B9E1
S31500001DA0C4F8780770BD3146D4F87827BDE870408E
S31500001DB002F0F4B9F8B5184B04461B680D461746F1
S31500001DC0D0F88C0713B108B1144812E0D4F888672C
S31500001DD0301A854211D90BB9AB0000E02B46991990
S31500001DE0C4F88817206815F089FBC4F8900720B955
S31500001DF00B48BDE8F84002F045BAD4F88C37D4F861
S31500001E0090072A461844394602F0C8F9D4F88C37A8
S31500001E101D44C4F88C57F8BD94072000C5FA080085
S31500001E20EFFA080001234187C36370474B1E0B2B53
S31500001E300CD8DFE803F00D0D0D0D0D0D0D060D0D83
S31500001E400609418FFFF746BDFFF77EBEFFF7D6BCFA
S31500001E50704700BF4B1E30B587B004460B2B68D8C1
S31500001E60DFE803F06D061C6D566D6D6D6D6D6D6D65
S31500001E702046FFF7EFFC334BB4F86C071A7884F86A
S31500001E803820511C19700090D4F87007A37E019079
S31500001E90E18B204600F010FB012348E09378101DEB
S31500001EA084F83830FFF7D2FD014668B93B2300902D
S31500001EB0638794F83850127B0290019203902A4669
S31500001EC0204600F02DFB31E0118A20465269FFF7CB
S31500001ED0E3FD2068FFF76EFD054628B1204607B0F2
S31500001EE0BDE8304000F0E8B92068FFF75DFD034625
S31500001EF080B2E18B0090A07E194401902B4694F8A5
S31500001F00382002950395204600F00AFB05230EE0D3
S31500001F109278A07E00213C23019084F838206387C4
S31500001F20009102910391204600F080FA0823636332
S31500001F3005E0204607B0BDE83040FFF75FBC07B0BC
S31500001F4030BD00BF780920004B1E10B50B2B15D8ED
S31500001F50DFE803F0181818181806180B18181810C8
S31500001F601146BDE81040FFF767BE3E21BDE81040B0
S31500001F70FFF7B0BCBDE81040FFF7E6BDBDE8104076
S31500001F80FFF73CBC10BD00BF4B1E10B504460B2B23
S31500001F902DD8DFE803F0313131310631310C3131E2
S31500001FA0122720461146BDE81040FFF70BBE20461B
S31500001FB03E21BDE81040FFF78DBC94F8743794F8C5
S31500001FC075279A420AD1636A1A68596890688BF035
S31500001FD0D3FC2046BDE8104000F0B4B9013384F8C4
S31500001FE0743710BD2046BDE81040FFF7ADBD204652
S31500001FF0BDE81040FFF702BC10BD00BF38B54B1E50
S31500002000044615460B2B49D8DFE803F04C4C4C062A
S315000020104C4C4C424C4C4C44436A1A685968906884
S315000020208BF0AAFCAA7894F838309A4202D020465F
S315000020303C2102E0A98821B12046BDE83840FFF7DF
S3150000204049BCEB8863B92046A98AAA69FFF7B2FEA4
S315000020500123C4F880372046BDE8384000F072B945
S31500002060228C9A4211D3A26A1168886851680E4A76
S31500002070126822B99B024FF47A72B3FBF2F2002384
S315000020808BF06AFC0723636338BD20460121D4E741
S315000020903E21D2E7BDE83840FFF756BDBDE83840DF
S315000020A0FFF7ACBB38BD00BF7C0920004B1E10B546
S315000020B004460B2B26D8DFE803F02A2A2A2A062A0A
S315000020C02A0C2A2A122020461146BDE81040FFF7A6
S315000020D079BD20463E21BDE81040FFF7FBBB94F8D2
S315000020E07537A3B9636A1A68596890688BF044FC1F
S315000020F02046BDE8104000F025B92046BDE8104056
S31500002100FFF722BD2046BDE81040FFF777BB10BDA4
S31500002110F0B585B00446481E15461F460A9E0B2894
S315000021205AD8DFE800F05F5F5F5F065F23315F38F4
S315000021304D53636A1868596880688BF01DFCD4F8A3
S31500002140781731B12046294605B0BDE8F040FFF7C3
S3150000215039BDA07E3D230190638794F83820009115
S3150000216002910391204600F061F93BE0E56A286898
S31500002170696880688BF000FC20463946324605B017
S31500002180BDE8F040FFF7EABD20463E2105B0BDE8B8
S31500002190F040FFF79FBB636A1A68596890688BF036
S315000021A0EBFBA07E00213D236387019094F8382045
S315000021B0009102910391204600F038F9082303E0CC
S315000021C0D4F8783773B1022363630BE0204605B079
S315000021D0BDE8F040FFF7B8BC204605B0BDE8F040CA
S315000021E0FFF70CBB05B0F0BD4B1E0B2B70B50446BC
S315000021F016461ED8012240F6DF6502FA03F31D409B
S31500002200E5B9DD050DD4980613D5A36A1868596893
S3150000221080688BF0B1FB20463146BDE87040FFF781
S315000022200BBDC18B90F8382000F0E0F80323636300
S3150000223070BD2046BDE87040FFF7E0BA70BD00BF34
S315000022402DE9FF414D1E0B2D044698460A9F29D8BD
S315000022500126AE4040F6BF5535404DBBB30512D4FE
S3150000226076061FD5C56A2868696880688BF084FB86
S31500002270204641463A46FFF771FD204604B0BDE8C8
S31500002280F04100F019B83D23438790F838200095B7
S31500002290817E029501910395294600F041F90823B4
S315000022A0636305E0204604B0BDE8F041FFF7A6BA37
S315000022B004B0BDE8F08100BF30B585B0D0F87857DE
S315000022C00446B5F5806F4FF0000204D8D0F87C07BD
S315000022D0ADB213460BE00E4B80F874271B8823B172
S315000022E0C18B15461944104602E018461D4619468C
S315000022F00093A37E0390019394F83820029520461C
S31500002300002300F00DF90223636305B030BD00BF62
S315000023109007200010B504468CF016FA03687BB1CE
S315000023202046FFF79BFB014650B10423C360638F31
S3150000233003820023E3632046BDE81040FFF79EBA00
S3150000234010BD00BF10B50446FFF73AFB00216163DC
S315000023502046BDE81040FFF765BD00BF2DE9F047F8
S3150000236086B00446DDF838A004F14E05002004F1DD
S3150000237054062064A164A4F84C2019460622284677
S31500002380DDF83C90DDF84080119F01F007FF5146D3
S315000023900622304601F002FFB4F84C30C4F85C90D7
S315000023A08DE8680004971FFA88F3039394E8030006
S315000023B02246A36C15F0C8F810B10B4801F062FF75
S315000023C02046E16D00F0EAF8B4F84C204AB1636AA1
S315000023D0196888685968002306B0BDE8F0478BF095
S315000023E0BBBA06B0BDE8F08731FB0800F0B500F1D6
S315000023F06405044689B00E4605A817464FF4E16108
S315000024002A46FFF72BF8394605A8FFF711F90C22E3
S3150000241004F11403206601920290A18900930395AA
S3150000242020463246FFF79AFF09B0F0BD2DE9F0438A
S3150000243095B0044606A80F4604F1640690460CAA19
S31500002440202199469DF87050FFF708F89DF87420F2
S3150000245006A87F21FFF726FA324609A84FF4E16164
S31500002460FEF7FCFF0023089800939DF81C300290AD
S3150000247001931F98BDF87830049009A8039341464C
S315000024804A462B46FFF7E6F8206604F1140300934C
S3150000249015F0800F4FF00D03019304F10E03029027
S315000024A0A1890396204614BF3A460022FFF756FF3D
S315000024B015B0BDE8F08300BFF0B593B0044604A89C
S315000024C01D460E4617460AAA2021FEF7C7FF2A46D2
S315000024D004A8002104F16405FFF7E4F92A4607A8D9
S315000024E04FF4E161FEF7BAFFBDF8603007A89DF82A
S315000024F014200093199B39460193069BFFF7E2F8D7
S315000025000A2204F11403206601920290A189009325
S31500002510039520463246FFF721FF13B0F0BD00BFFA
S315000025202DE9F04192B0044604A80E4604F1640574
S3150000253017460AAA20219846FEF790FF9DF86420C8
S3150000254004A87F21FFF7AEF92A4607A84FF4E161F8
S31500002550FEF784FF9DF81430069800930190BDF8AD
S3150000256068301B980293039007A839464246BDF887
S315000025706030FFF7CFF8206604F1140300930B23B5
S31500002580019304F10E030290A18903952046324679
S31500002590FFF7E4FE12B0BDE8F08100BF38B504468F
S315000025A00D468CF0D1F80368C3B12046FFF756FA02
S315000025B0034698B101220561C260226E426194F819
S315000025C0741794F875278A4218BF41F08002027684
S315000025D019462046BDE83840FFF750B938BD00BF60
S315000025E02DE9F74388464FF4F361814617461E46A8
S315000025F014F084FF04460025002859D029464FF4DC
S31500002600F36201F01BFE314604F114000622A560B8
S31500002610C4F80090C4F80480A78101F0BFFD4FF410
S31500002620FA63E3834FF6FF73A576A58323842046DA
S31500002630FFF7F8F82046FFF79FF808B91E4813E0A1
S3150000264094E8030004F10E0214F026FF002802DAD3
S315000026501A4801F017FE206819492246194B19F04D
S3150000266003FB606258B9184801F00CFE2046FFF7DC
S31500002670D9F82068214614F00BFF002019E02068E5
S3150000268012492246124B19F0EFFAA0620028EAD04E
S31500002690206810492246104B19F0E6FAE06200283D
S315000026A0E1D00021009120460A460B46FFF756F975
S315000026B0204603B0BDE8F08358FB080071FB080014
S315000026C0351B00008CFB08009AFB0800E917000088
S315000026D0B2FB0800F11A0000C5FB080010B504465D
S315000026E020B9264801F0CEFD204610BD436A1A687F
S315000026F0596890688BF040F9A36A1A68596890681F
S315000027008BF03AF9E36A1A68596890688BF034F9E5
S31500002710636A1A68596890688BF056F9606A0EF019
S315000027203FFFA36A1A68596890688BF04DF9A06A52
S315000027300EF036FFE36A1A68596890688BF044F920
S31500002740E06A0EF02DFF2046FFF76CF8D4F87017FC
S3150000275011B1206814F09CFED4F87C1711B12068E2
S3150000276014F096FED4F8901711B1206814F090FE7C
S315000027702068214614F08CFE012010BD45FB0800A0
S31500002780F8B51546044620B90F4801F07BFD2046F2
S31500002790F8BD0E4A1068174610B9D4F8806756B1CE
S315000027A0D4F88C278A4206DC2A601846D4F890179B
S315000027B001F0F4FC01E000232B603B6813B12046D6
S315000027C0FFF748F80120F8BD45FB080094072000F4
S315000027D010B5044620B9074801F054FD204610BD47
S315000027E0054B1B6813B9D0F8800708B1D4F88C07DD
S315000027F010BD00BF45FB080094072000014B186080
S31500002800704700BF8C0720003C292DE9F0478EB0A9
S31500002810814616461C4602D04B2915D071E0184653
S31500002820FFF780F8B36804461BB1052B69D10C216C
S3150000283000E00B212046FFF7F1F8002861D00022C6
S3150000284000922046134641E0588840BA80B202F012
S31500002850A7FE169F04F11002804603A8103F3946D2
S31500002860FEF7FAFA00284CD003A806A9FEF746FCA4
S31500002870002846D09DF819300A3B032B41D8DFE8E3
S3150000288003F0020B05080121032407E001210524BA
S3150000289004E00021062401E00021042406F1180AC0
S315000028A05046FFF725F8054698B19DF819300A2BD2
S315000028B002D1FFF713FF0CE0284606A93A46FFF7B8
S315000028C02BFA284606AA214600230093FFF746F86E
S315000028D017E09DF819300A2B01D00C2B11D10A4BA9
S315000028E01B680BB909480AE0484696F82F1042467D
S315000028F05346FFF775FE05460028DDD1044801F072
S31500002900C1FC0EB0BDE8F0878C072000D8FB08009C
S31500002910FFFB080010B5044620B9044801F0B2FCDC
S31500002920204610BD4160012010BD00BF45FB0800D8
S3150000293010B5044620B9074801F0A4FC204610BD96
S31500002940036B23B94FF47A735943890A0184012032
S3150000295010BD00BF45FB080010B5044620B9054868
S3150000296001F090FC204610BD036B03B98183012062
S3150000297010BD00BF45FB0800F8B50D4617460446D6
S3150000298020B9114801F07EFC2046F8BD066BC6B999
S31500002990D0F8701721B1006814F07AFDC4F870679A
S315000029A0C4F86C572068294614F0A8FDC4F87007CF
S315000029B010B9C4F86C0704E03946D4F86C2701F066
S315000029C0EDFB0120F8BD00BF45FB080010B504462D
S315000029D020B9084801F056FC204610BDFFF71EF846
S315000029E038B1236B23B92046FFF7B8F9012010BD93
S315000029F0002010BD45FB080010B5044620B9054867
S31500002A0001F040FC204610BD036B03B9C1830120D1
S31500002A1010BD00BF45FB080013B50022044620B9CF
S31500002A20064801F02FFC204605E0009202211346DD
S31500002A30FEF794FF012002B010BD00BF45FB080061
S31500002A4008B502468BF080FE80E80600012008BD2E
S31500002A5008B58BF079FE0021082201F0EFFB01207A
S31500002A6008BD00BF034680689A890844511A9860D9
S31500002A70998170472DE9F04F8DB08146A1F1040888
S31500002A800C4601F17C0A1E469DF85870049258F8CF
S31500002A90045F002D39D0049A2AB3EA7B05F11001B0
S31500002AA095F80EB008A801F079FB062205F1080199
S31500002AB006A801F073FBE87A297A6A7AAB7A009065
S31500002AC0287B0190687B0290414801F0DBFB0123E3
S31500002AD006AA2D684846019308ABCDF800B02146FA
S31500002AE000F08AF9D5E72FB16B68179AD31AB3F5B8
S31500002AF0167FD2D83EB1304605F10801062201F014
S31500002B003BFB0028C9D02D68C3E7D045BFD1D4F818
S31500002B108080AA46B8F1000F56D0049B0BB1CFB106
S31500002B2006E067B1D8F80430179AD31A022B06D9F3
S31500002B30D8F80430179AD31A022B0DD80AE0002EC3
S31500002B403ED0304608F10801062201F015FB0028A8
S31500002B50E5D035E0002300E00123DBB20593D8F889
S31500002B600030BAF1000F02D1C4F8803001E0CAF893
S31500002B700030179B08F1100B062200932046594699
S31500002B80012300F08DF9059A72B168B998F80E30F4
S31500002B90179A009301230193029208F1080248460E
S31500002BA021465B4600F0B0F840460EF0F9FCBAF15B
S31500002BB0000F02D1D4F88080ACE7DAF80080A9E7EC
S31500002BC0C246D8F80080A5E70DB0BDE8F08F00BF7B
S31500002BD0E70509007FB50DF10F03009304AA05ABC5
S31500002BE000F06EFA50B99DF80F30012B06D1049B08
S31500002BF01878083818BF6FF0000001E04FF0FF307A
S31500002C0007B05DF804FB00BF8A6830B587B01C4684
S31500002C101378DB0702D44FF0FF301DE00DF10F03F0
S31500002C2004AA009305AB00F04BFA0028F3D19DF8F7
S31500002C300F30112BEFD105990729ECDD049A957811
S31500002C40D37843EA0523442BE5D12929E3DD137A1A
S31500002C50022BE0D12432226007B030BD10B586B019
S31500002C608C680DF10E0300930DF10D03019304AA78
S31500002C7005AB00F0DFF910B14FF0FF343AE0204623
S31500002C8002F044FA30B1BDF80E3040F60602934227
S31500002C9008D117E019482146062201F06DFA0028EE
S31500002CA0F1D0E9E748F2DD629342E5D1059B3F2B7F
S31500002CB00DDD049B9A793A2ADED193F82830882BC9
S31500002CC005D0D9E71C21042218230E2003E0402159
S31500002CD0102230230820059C8C42CDDB0499084441
S31500002CE0194401F049FA04460028C5D104480549AB
S31500002CF001F0C8FA204606B010BD00BF3E5C0800D1
S31500002D006AFC08004DFC08002DE9F84F9DF8288064
S31500002D100E46B8F1040F93461C469DF82C9011D12F
S31500002D201A785978987841EA0205DB7805431D43FD
S31500002D3059D00A4010401840FF2854D0474603F0A7
S31500002D401F0A27E0B8F1060F4DD15A7893F80FA065
S31500002D501B781343A2781343E27813432279134373
S31500002D6062791343A2791343E2791343227A134318
S31500002D70627A1343A27A1343E27A1343227B134304
S31500002D80627B1343A27B13435AEA03032BD010271B
S31500002D900AF01F0A07F114000EF0F6FB054630B3E1
S31500002DA059460830062201F0F9F90C9B05F110008E
S31500002DB085F80E806B60EF7321463A4601F0EEF916
S31500002DC0B9F1000F09D00FFA8AFA56F82A302B60AB
S31500002DD046F82A500020BDE8F88FD6F880302B60E0
S31500002DE0C6F88050F6E74FF0FF30BDE8F88F6FF079
S31500002DF01A00BDE8F88F00BF2DE9F74F9DF8306047
S31500002E009A46042E9DF834300D460192009305D162
S31500002E109AF803C0B1460CF01F0B07E0062E35D119
S31500002E209AF80FC04FF010090CF01F0B009B13B15E
S31500002E3055F82B4001E0D5F880404FF000081CB350
S31500002E40A27BB2421DD1514604F110004A4601F060
S31500002E5093F9B0B9019904F10800062201F08CF942
S31500002E60074670B92368B8F1000F07D1009A12B16E
S31500002E7045F82B300DE0C5F880300AE0C8F8003080
S31500002E8007E0A0462468DAE7274605E04FF0FF375B
S31500002E9002E020460EF084FB384603B0BDE8F08F12
S31500002EA0042AF8B50E46154604D1CA782F4602F014
S31500002EB01F0207E0062A01D00020F8BDCA7B1027B2
S31500002EC002F01F0213B150F8224006E0D0F880400D
S31500002ED003E0A37BAB4203D02468002CF9D1EBE7D7
S31500002EE0314604F110003A4601F046F90028F3D1C4
S31500002EF0069B20466360F8BD062200F18A03084659
S31500002F00194601F04BB900BF062200F184030846BA
S31500002F10194601F043B900BF06228A3001F03EB9D6
S31500002F200622843001F03AB902312DE9F8438EB217
S31500002F30314691469846BDF8205004F017FC0746E6
S31500002F4030B9194940F24A22184801F09BF927E0A6
S31500002F500221FFF787FDBC6849460622A01D01F045
S31500002F601DF941462046062201F018F99DF8243045
S31500002F704FEA15286BB1330A04F10E00237366730A
S31500002F800B49062201F00AF984F8148065751623A8
S31500002F9003E00E2384F80C8065730A9A1C441460BF
S31500002FA03846BDE8F88300BF2AFC0800A1FC0800EB
S31500002FB018540800F0B585B000250A9EADF80650F5
S31500002FC0B8B12C46475B0235102D3C44FAD100209F
S31500002FD00D5A023010282C44FAD1002103918DF8A5
S31500002FE00F300B4602A9595A0233082B0C44F9D16B
S31500002FF000E004463346B018C11A012903D933F854
S31500003000021B0C44F8E75308D20706D516F813300E
S315000030108DF80630BDF806301C44A3B203EB144409
S3150000302004EB1444E04380B205B0F0BD08460EF050
S31500003030B7BA00BF2DE9F0418D8917460D2D984688
S315000030408C6803DC4FF0FF30BDE8F081227B637BA8
S3150000305043EA0223B3F5C06F03DB002604F10C013B
S315000030600CE0152DEEDD154804F10E01062201F0E7
S3150000307083F80028E6D1012604F1140108784B787C
S3150000308043EA0020B0F5014F0AD16219881D90422B
S3150000309001F10403D6D808794A79194642EA002094
S315000030A0069B02313960611A0D44C8F80050188039
S315000030B0079B00201E70BDE8F08100BF1854080071
S315000030C0F0B587B01E460DF10E0300930DF10D030A
S315000030D0174604AA019305ABFFF7ACFF002836D1CB
S315000030E0BDF80E30B3F5006F31D1059D132D2EDDE1
S315000030F004990A781309042B29D14C8802F00F028F
S3150000310064BAA4B2AC424FEA820201DA059400E046
S315000031101DDC132A059C01D9A24206DD00940E4946
S3150000312014230E4801F0AEF811E0CB885BBAC3F366
S315000031300D0323B108490A4801F0A4F807E04D7AC7
S315000031400C9B1144A21A396032601D7001E04FF0E9
S31500003150FF3007B0F0BD00BF1AFC0800381909009F
S3150000316084FC080090200EF00FBA00BF10B50129AC
S315000031700ADD0478437894424FEAC30301D19942A9
S3150000318003DA1844C91AF2E7002010BD38B5438A9D
S31500003190044603F00303012B0AD1036AB3B12030BE
S315000031A000F088F800210422054601F047F803E004
S315000031B080680EF0E1F9054645B1A389E28901333D
S315000031C09BB29A42A38105D2E38103E0238A0025BC
S315000031D001332382284638BD10B50446084681B11E
S315000031E0638A03F00303012B04D104F1200000F0ED
S315000031F055F801E00EF0D4F9A3890020013BA38124
S3150000320010BD6FF0010010BD38B505460C460846E6
S315000032101422002101F012F8AB682046A360AB89A6
S315000032202946E381EB89082223822B8A638201F0F7
S31500003230B5F80023E3716B8A002003F00303012B2A
S3150000324004BFAB8AA38138BD2DE9F843166803890C
S3150000325004469E420F4690461BDB00254FF024098C
S315000032606389AB420FD9206809FB0500438A5907D9
S3150000327006D5721C04D03946013E1437FFF7C4FF49
S315000032800135ADB2ECE723890020C8F80030BDE86F
S31500003290F8836FF00D00BDE8F88300BF38B505462A
S315000032A00C4608460422002100F0C8FF2B68236064
S315000032B02C6038BD03680BB11A6802601846704767
S315000032C02DE9F8430F46904699460446B0B1037A75
S315000032D0BBB10068B8B1866800233546237295E80D
S315000032E0050039469047B8F1000F02D048463946E6
S315000032F0C047AD68B542F2D1012323720020BDE874
S31500003300F8836FF00F00BDE8F88300BFF8B51646E6
S31500003310027A05460F464368AAB1D868FFF736FF1A
S31500003320044698B100210C2200F088FF286884E842
S31500003330C00010B9A4602C60F8BD8368A3608460E7
S315000033402C600020F8BD6FF00F00F8BD6FF01A007A
S31500003350F8BD00BF38B50C4605468068FFF716FF76
S31500003360206050B100210C2200F068FF2368012282
S315000033701A72236800205D6038BD6FF01A0038BDF0
S31500003380036870B593E850001B7A0546E3B17CB13B
S31500003390A1688C4205D12146F0680024FFF71CFF86
S315000033A006E08B68F068A360FFF716FFA468EEE7F7
S315000033B00C222868002100F041FFB0682968FFF759
S315000033C00BFF2C60002070BD6FF00F0070BD00BFBA
S315000033D0F8B51746027A04460D4690E848005AB3F7
S315000033E013B96FF01D0014E09A689342F9D15A6838
S315000033F08A4224D11A68BA4221D1F0681946FFF7E9
S31500003400EBFE00202060F8BD99684A68AA4203D006
S315000034100B46002BF8D10EE00A68BA42F8D12268B2
S31500003420F0688A428A6808BF23609A60FFF7D4FE74
S3150000343000210846ECE7F8BD6FF00F00F8BD6FF00D
S315000034401D00F8BD00221346FFF73ABFFFF738BF4D
S3150000345011B1042902D8704700F04EB8014800F0B7
S3150000346011BF00BF1FFB080038B50D4600210446FA
S315000034700A4600680B4616F04FFC3DB163691A68B0
S315000034805968906800232A468AF066FA0523236263
S3150000349038BD00BF38B503890D460E2B8CBF4FF4DF
S315000034A04042002243F4805304461A430068012137
S315000034B02B4616F031FC3DB163691A68596890686D
S315000034C000232A468AF048FA0423236238BD00BF47
S315000034D0C36910B5052B04460AD8042908D8054A3D
S315000034E052F823309847236AE2699A4218BFE3618B
S315000034F010BD00BF24540800002110B504460A463A
S315000035000B46006816F008FC63691A6859689068EB
S315000035108AF032FA00236362236210BD38B503894C
S3150000352004460D460E2B8CBF4FF44042002243F456
S3150000353080531A4301212B46006816F0EDFB6369A0
S315000035401A685968906800232A468AF005FA022309
S31500003550236238BD0421FFF7BBBF00BF08B50EF0DC
S3150000356021F80323B0FBF3F202FB1300431C642093
S31500003570584380B208BD00BF30B587B0044600216D
S315000035800A460B46006816F0C7FB2269218B4FF0EE
S31500003590FF3300930131019389B2156821830295A7
S315000035A0002503950495127B20680592012216F0EA
S315000035B02BFB0123236207B030BD00BF30B587B0B7
S315000035C00446002213460221006816F0A5FB226974
S315000035D0218B4FF0FF3300930131019389B21568B7
S315000035E021830295157A2068039552680492002279
S315000035F00592012216F008FB636A01336362032316
S31500003600236207B030BD00BF034631B1032907D995
S31500003610042902D14189FFF73DBF1846FFF718BFBD
S31500003620704700BF034651B103290BD9042906D1BF
S31500003630818909B1FFF718BF4189FFF72BBF1846EB
S31500003640FFF706BF704700BF4B1E032B0AD8DFE803
S3150000365003F002020B0B012901D1FFF7AFBF41892D
S31500003660FFF718BFFFF7F4BE704700BF032908D065
S31500003670042902D0012902D17047FFF79FBFFFF747
S31500003680E7BE70474B1E10B50446032B0BD8DFE888
S3150000369003F00E0E020EFFF761FF01462046BDE85D
S315000036A01040FFF73BBFBDE81040FFF7D1BE10BD8D
S315000036B04B1E10B50446032B12D8DFE803F0151590
S315000036C00215436ADB0603D1BDE81040FFF754BF7D
S315000036D0FFF744FF01462046BDE81040FFF71EBF36
S315000036E0BDE81040FFF7B4BE10BD00BF08B58BF0B3
S315000036F03BF8438913B140680DF052FF00F010F813
S31500003700002008BD38B505468BF02EF804682C60FD
S31500003710047B0C70017A1170426800201A6038BD73
S3150000372008B58BF021F84FF0FF32026003220272D7
S31500003730024A034642600020588108BD1E54080014
S315000037402DE9F0411D460E46904607468BF00CF8D3
S3150000375004463846FFF7CAFF6800266084F80C80E6
S31500003760257260810DF008FF606048B90849094874
S3150000377000F088FDFFF7D4FF6FF01A00BDE8F08176
S315000037800699628900F00AFD0020BDE8F08100BFBD
S31500003790DFFC08006910090070B50E4605468AF080
S315000037A0DBFF04460021282200F048FD2560268123
S315000037B08AF0DAFF2061211D206816F015FA00282C
S315000037C002DA0E4800F05EFD20680D4922460D4BD8
S315000037D018F04AFA0546606148B90B4800F052FDF8
S315000037E020462946282200F029FD284670BD20469D
S315000037F00021FFF76DFE204670BD00BFB7FC080034
S3150000380055350000D3FC08009AFB080038B504467D
S31500003810002520B90D4800F035FD204638BD436926
S3150000382045601A68596890688AF0A6F863691A684C
S31500003830596890688AF0C8F860690DF0B1FE2046B4
S315000038402946282200F0FAFC012038BD45FB080075
S315000038504068704710B5044620B9054800F012FDCF
S31500003860204610BD0021FFF733FE012010BD00BF2A
S3150000387045FB080010B5044620B9054800F002FDD6
S31500003880204610BD0121FFF723FE012010BD00BF19
S3150000389045FB080010B5044620B9064800F0F2FCC6
S315000038A0204610BD418182810221FFF711FE0120D1
S315000038B010BD00BF45FB08000C2A14BF04222222BB
S315000038C05BBA30B59BB214468A420DD2055B9D4267
S315000038D00DD005196D886DBAADB20435ADB22C4464
S315000038E02A44A4B292B2EFE74FF0FF3030BD204633
S315000038F030BD00BFEC2910B51DD990F8EC30632B14
S3150000390019D190F8ED30822B15D190F8EE30532B6B
S3150000391011D190F8EF30632B0DD1F0238B420AD2F0
S31500003920C45CFF2C07D0944208D0C41864780234D3
S3150000393023449BB2F2E74FF0FF3010BD184610BD8E
S315000039402DE9F04385B01E469DF8343081460C467D
S315000039500C9F002B38D00846012311462278FFF72A
S31500003960ABFF451C30D023189B88B3F5807F02D16E
S3150000397000F10C0504E0B3F5407F25D100F1080500
S3150000398004EB050802A84146062200F007FCBDF834
S315000039900A30728831885A40BDF808304B401A43C5
S315000039A0B188BDF80C304B4013439BB263B93B78EA
S315000039B006228DF8083002AB009209EB0200414660
S315000039C000F046F93B786355002005B0BDE8F0836A
S315000039D02DE9F04786B01D469DF83C3082460C46E0
S315000039E090460E9F002B6AD00B78012B67D10622DA
S315000039F001F11C06314602A800F0D0FBBDF80A30E2
S31500003A006A8829885A40BDF808304B401A43A9886D
S31500003A10BDF80C304B4013439BB263B93B7806228A
S31500003A208DF8083002AB00920AEB0200314600F036
S31500003A300FF93B782377414620463D22FFF75AFF90
S31500003A40B0F1FF3F80463AD023189B78012B36D140
S31500003A500622C61C04EB060902A8494600F09EFB96
S31500003A60BDF80A306A8829885A40BDF808304B40AC
S31500003A701A43A988BDF80C304B4013439BB2F3B9E7
S31500003A803B78F0078DF8083009D5052208F10206C3
S31500003A900DF1110002A9A35D8DF8103002E0062297
S31500003AA004A802A900F07AFB062204AB00920AEBF6
S31500003AB00200A11900F0CCF83B7889F8003000200C
S31500003AC006B0BDE8F08700BF2DE9F04385B01F467C
S31500003AD09DF8343081460C460C9D002B38D10846A3
S31500003AE0012311462278FFF7E7FE421C30D0231847
S31500003AF09B88B3F5807F02D100F10C0604E0B3F594
S31500003B00407F25D100F1080604EB060802A84146CD
S31500003B10062200F043FBBDF80A306A8829885A401D
S31500003B20BDF808304B401A43A988BDF80C304B400D
S31500003B3013439BB263B93B7806228DF8083002AB7B
S31500003B40009209EB0200414600F082F83B78A3554B
S31500003B50002005B0BDE8F0832DE9F04786B01F468A
S31500003B609DF83C3082460C4690460E9D002B6AD14D
S31500003B700B78022B67D1062201F11C06314602A8FA
S31500003B8000F00CFBBDF80A306A8829885A40BDF857
S31500003B9008304B401A43A988BDF80C304B401343FC
S31500003BA09BB263B93B7806228DF8083002AB0092CF
S31500003BB00AEB0200314600F04BF83B78237741468A
S31500003BC020463D22FFF796FEB0F1FF3F80463AD0F1
S31500003BD023189B78012B36D10622C61C04EB060956
S31500003BE002A8494600F0DAFABDF80A306A88298840
S31500003BF05A40BDF808304B401A43A988BDF80C302E
S31500003C004B4013439BB2F3B93B788DF80830F3076A
S31500003C1009D5052208F102060DF1110002A9A35DDE
S31500003C208DF8103002E0062204A802A900F0B6FAC8
S31500003C30062204AB00920AEB0200A11900F008F874
S31500003C403B7889F80030002006B0BDE8F08700BF59
S31500003C5070B50578447814EB05242CD0E443023281
S31500003C608D1CA4B21144A9420DD015F8026C023580
S31500003C7015F8032C02EB0622A41A002CDCBF04F173
S31500003C80FF34A4B2EFE704999A1C02310B44934225
S31500003C900CD012F8025C023212F8031C01EB05216B
S31500003CA00C44E10344BF0134A4B2F0E7E443A4B2F8
S31500003CB044702312037070BD73B505460E46144654
S31500003CC0D3B1062205F10801684600F067FABDF88F
S31500003CD0022023786188208851408DF80030BDF895
S31500003CE0002042401143A088BDF8042042400A4308
S31500003CF092B2EAB92B721BE0C388B3F5007F17D1E5
S31500003D00062205F11201684600F048FABDF80230B5
S31500003D10628821885A40BDF800304B401A43A1887A
S31500003D20BDF804304B4013439BB20BB93378AB74E8
S31500003D30002002B070BD00BFF0B50446442C084612
S31500003D40069F11469DF81C601A469DF82050059B5B
S31500003D5018D008D8432C23D1059706960795BDE8B9
S31500003D60F040FFF735BE40F2222C644511D00CF12D
S31500003D70010C644514D1059706960795BDE8F040F9
S31500003D80FFF7DEBD059706960795BDE8F040FFF7FD
S31500003D90E3BE059706960795BDE8F040FFF794BE8B
S31500003DA00020F0BD2DE9F3418C89164664BA984689
S31500003DB0A4B240F2C653A4F116020D4692B29A423C
S31500003DC0089F13D81C4B0E31062218689B8800905A
S31500003DD06846ADF8043000F0CFF910B14FF0FF306F
S31500003DE026E0AC8A162164BAA4B200E00E21B4F52E
S31500003DF0014F04D1EC89043189B264BAA4B2B8F196
S31500003E00000F01D0A8F800106FB148F68E039C424F
S31500003E1007D026339C4204D01333E11A4B424B4160
S31500003E2000E001233B7016B13480002000E03046EC
S31500003E3002B0BDE8F08100BF38EF0800F0B587B0EA
S31500003E400B780546852B0C460C9E9DF8347005D1E3
S31500003E500B7A012B61D101F10A055CE0862B0DD1AD
S31500003E600B7C032B11BF01F110054D7C023501EBD4
S31500003E70C5052B78012B50D102354CE0872B14D188
S31500003E80002102A8102200F0D9F9102202A805F19B
S31500003E90080100F071F900283FD0237E012B14BFE2
S31500003EA0002504F11A059FB937E0882B07D1182A97
S31500003EB033D00B7E022B30D101F11A052BE0892B72
S31500003EC02BD191F82830022B27D101F12A0522E0C7
S31500003ED01DB3294602A8062200F060F933787288DD
S31500003EE08DF80830BDF80A3031885A40BDF80830E0
S31500003EF04B401A43B188BDF80C304B4013439BB27C
S31500003F005BB9062202AB0092A01C2946FFF7A0FE71
S31500003F1033782B7001E0002FDBD1002007B0F0BD15
S31500003F2070B586B01B780A9C1B096588042B6DBA90
S31500003F30ADB202D1A5F1430303E0062B07D1A5F2EA
S31500003F4022239BB2012B8CBF0023012300E0002318
S31500003F5003F0FF06ABB1A38804F1080600965BBA2E
S31500003F6002959BB2083B9BB201930B9B03939DF872
S31500003F70303004939DF83430059323460E9CA047B9
S31500003F8000E0304606B070BD2DE9F043ADF5097D81
S31500003F901F4608AE81468846104600211546102267
S31500003FA0002400F04BF900211022384600F046F9B3
S31500003FB0304600214FF4007200F040F9444505DA1E
S31500003FC019F8043006F814300134F7E701A80AF0AE
S31500003FD03FFC4FEA081201A831460AF051FC284678
S31500003FE001A90AF01FFC01A80AF032FC294601A823
S31500003FF080220AF045FC384601A90AF013FC0DF5AB
S31500004000097DBDE8F08300BFF0B5AFB0044602A855
S315000040100F4608AD00211646152200F00FF921467D
S3150000402002A81022002400F0B9F84FF0070C0CFB90
S3150000403004F102A800F05AF828550134182CF6D1DC
S31500004040002439460822684600F0A8F829190EA867
S31500004050002202F07BFE69460EA802F075FD3019BB
S3150000406008346946082200F099F8182CE9D12FB0D7
S31500004070F0BD00BF70B59AB00D46064668461446B8
S315000040800AF032FF684631462A460AF03FFF2046CC
S3150000409069460AF0DFFE1AB070BD00BF10F00103DA
S315000040A022D00B68C3EB500323F000431F2B08D824
S315000040B00120116800FA03F30B4215D10B4313607C
S315000040C07047B3F1804F0FD2173B1F2B8EBF0020D6
S315000040D01068D8401060086803440B60136801201C
S315000040E043F400031360704700207047082391FBD8
S315000040F0F3F301F00701C218C05C5278C1F1080160
S3150000410002EB002080B2084100F0FE00704700BFBD
S31500004110F0B585B005460A9E0127B2FBF3FC00AC5C
S315000041200B9803FB1C223C44825C3846013704F89A
S31500004130012C6246002AF0D10EB1864204DC013C15
S3150000414000AA0DF1FF3309E0301A204430238442DF
S3150000415002D004F8013BFAE73046F0E79C4209D06A
S315000041608D4204F1FF3405F101059CBF627805F824
S31500004170012CF3E705B0F0BD002330B5934208D01B
S31500004180C55CCC5CA54206D303F10103F6D9012038
S3150000419030BD002030BD4FF0FF3030BD032A30B5B2
S315000041A004D980EA010313F0030302D00446002376
S315000041B01AE04C4204F00304151BA34203D0CA5C68
S315000041C0C2540133F9E7C41819440022AB1A032B71
S315000041D003D98B58A3500432F8E705F0030225F003
S315000041E003052C442944E2E7934203D0CD5CE55411
S315000041F00133F9E730BD00BF8318994230B502D2CA
S315000042008B18984203D3BDE83040FFF7C7BF814201
S315000042100BD25342541E0519214419442B441AB19A
S315000042208C5C9C54013AFAE730BD06D900239342D0
S3150000423003D0CC5CC4540133F9E730BD072A30B54E
S3150000424001D9830701D0024416E029B1CCB244EA71
S31500004250042444EA044400E00C46034643F8044BB5
S31500004260D51A0544032DF9D8131F02F0030223F0D3
S31500004270030304331844E6E7904202D000F8011B1A
S31500004280FAE730BD0FB470B5C2B040F2011146ABCB
S31500004290002401AD53F8042B2846009300F0F2F8F1
S315000042A00646B44204DA285D013489F0C5FAF8E717
S315000042B0304642B0BDE8704004B070470CB407B554
S315000042C004AB53F8042B019300F0DCF803B05DF85F
S315000042D004EB02B0704700BF0EB403B503AA52F850
S315000042E0041B019200F0E4F902B05DF804EB03B0A0
S315000042F0704700BFC9B2024610F8013B8B4203D09B
S31500004300002BF8D11846704710467047013910B592
S3150000431011F8013F044633B110F8012B1AB19A4245
S3150000432008D3F5D909E0227812B133B1002010BDC7
S31500004330002BFBD04FF0FF3010BD012010BD00BF99
S315000043400023CA5CC2540133002AFAD1704700BF69
S315000043500023C25C0AB10133FBE71846704700BF71
S315000043600023F0B5CC5CD51AC7184CB1C65C3EB17B
S31500004370934209D0A6420BD303F10103F2D90AE016
S3150000438015B13B7813B134B10020F0BD002CFBD041
S315000043904FF0FF30F0BD0120F0BD00BF10B5024464
S315000043A004460346934205D011F8010B03F8010BAE
S315000043B00028F7D118460021D21AFFF73FFF204602
S315000043C010BD00BF0022C9B210B5034610F8014B5C
S315000043D08C4218BF13460CB11A46F6E7184610BDB4
S315000043E0F0B5274E047803460130355DDFF890C0FE
S315000043F005F0200505F0FF07002DF3D12B2C01D188
S31500004400034605E02D2C08BF034614BF00270127ED
S3150000441062B91A78302A15D15A7802F0DF02582A82
S3150000442007BF10220233082201330CE0102A0AD1FA
S315000044301878302807D1587800F0DF00582802D1C4
S31500004440023300E00A2200201E46013334781CF8AD
S31500004450045015F0440F02D17FB140420DE015F033
S31500004460040F01D0303C03E0AD074CBF573C373C4E
S315000044709442F1D202FB0040E6E701B10E60F0BDC6
S315000044805E5408002DE9F74F01394518411E4FF0DB
S31500004490000A80468D4238BF4FF0FF350446574626
S315000044A0DFF808921178002900F0EE80252906D061
S315000044B0AC4202F1010298BF21700134F2E7517853
S315000044C023290ABF4FF0010A0132023211782D2941
S315000044D001D0302900D10132002110781646013270
S315000044E058B319F800C00CF0040C0CF0FF0BBCF12B
S315000044F0000F09D030380144107819F80000400741
S3150000450044BF0A204143E8E72E2816D132465F46CB
S315000045100A205278013682B1DFF890B11BF802C04A
S315000045201CF0040F09D0303A1744727819F80220AB
S31500004530520748BF47433246EBE732786C2A08BF3A
S3150000454001363078692850D00AD858286DD001D85D
S31500004550502809E0632800F08380642845D089E06C
S31500004560732815D00FD8702840F084801A6803F19C
S31500004570040B4B494B4B502814BF084618460823DA
S315000045800093019068E0752842D078284DD071E0FC
S31500004590454A03F1040B1B68002B08BF1346581E3F
S315000045A007B909B1234613E010F8012F002A68D095
S315000045B0AC4204F1010498BF04F8012CF4E710F8AA
S315000045C0012F3AB1AB4201F1FF3198BF1A700133A6
S315000045D00029F4D15C182022A34252D0AB4203F149
S315000045E0010398BF03F8012CF6E71A6803F1040BE0
S315000045F0002A07DAAC4204F101049CBF2D2304F81B
S31500004600013C5242274B009101932046294607E080
S31500004610244A03F1040B00910192204629461A68A8
S315000046200A23FFF775FD04442BE0BAF1000F06D00C
S315000046302246302002F8020B3078607014461A6861
S3150000464003F1040B96F800E01648154BBEF1580F1F
S3150000465008BF03468DE80A00204629461023E0E7F6
S31500004660AC4203F1040B1B6804F1010498BF04F883
S31500004670013C06E0AC4204F1010498BF04F8010CC9
S315000046809B465B46721C0DE7AC4295BFC8EB040027
S31500004690C8EB05002170297003B0BDE8F08F00BF9C
S315000046A03C5408004D54080008F408005E54080005
S315000046B010B50C466FF0004113462246BDE8104087
S315000046C0FFF7E0BE164B10B51B6823B35A6822B33A
S315000046D0DC681CB3A168013A5A60D96031B92AB1C5
S315000046E021881048C1F30B01FFF7CCFD21686FF359
S315000046F0173121600B0E6FF30713E370C1F30B0143
S315000047000023A36011B90848FFF7BCFDE37843F026
S315000047101003E37002E01C4600E01446204610BD7C
S3150000472080092000F7FC080033FD080000210A225A
S3150000473000F0B6BA4260C26001608160704700BF97
S31500004740002330B5044618468B4207D0E25C1AB106
S31500004750551E01302A40FAE70133F5E730BD00BFA8
S315000047600EB417B505AB044653F8042B03C80193E2
S31500004770FFF788FE411C02D06368984202DB0023E3
S31500004780636004E01B1A636023680344236003B07C
S31500004790BDE8104003B07047002213B501920F4ADE
S315000047A0034612680C46BAB110B109B1884205D168
S315000047B0194622460A48FFF765FD0DE01268904249
S315000047C00AD8914208D800F03FF901A900F05AFA38
S315000047D0036864F31733036002B010BD800920003C
S315000047E0A8FD080070B5A0F5804503460C460846AE
S315000047F0054E1146054AB5F5C04F98BF3246FFF73C
S315000048005DFD204670BD00BFE2FD08003699090037
S3150000481010B512F1FF3205D3845C8B5C9C42F8D054
S31500004820E01A10BD002010BD38B503460C4641B154
S3150000483038B145780846194602352A462C44FFF712
S31500004840ADFC204638BD00BF10B50B4648B1012A65
S3150000485007DD44780234A24203DBBDE81040FFF7CF
S31500004860E3BF184610BD00BF37B50D460024102221
S31500004870013401A900F014FA2B1903F8010C019B6D
S31500004880581C1B780BB1062CF1D1A31F5842584176
S3150000489003B030BD70B50A4600230B4C3A25C65C02
S315000048A003323609A65D02F8036CC65C0133062B9B
S315000048B002F8015C06F00F06A65D02F8026CEED166
S315000048C000234B74084670BDC80009002DE9F3416A
S315000048D0089D019117461E46044608B9002025E0AA
S315000048E00129FBDD437802339942F7DB05F1020823
S315000048F022786378DD2A07D0204601A900F062F904
S3150000490004460028F4D1E9E79845F5DA3946A01CB3
S315000049100322FFF731FC0028EED135B13146601D88
S315000049202A46FFF729FC0028E6D1204602B0BDE85A
S31500004930F08100BF012B2DE9F04F87B082460D466E
S3150000494016469B464FF0000841DD002A41D014462A
S31500004950474682F80080002D37D00AEB08035AF844
S3150000496008905968B9F1000F08D1102102A82B460A
S315000049701A4A4D46FFF7A2FC02A902E019EA050F02
S3150000498019D008460191FFF7E3FC25EA090507441B
S315000049908146019905B10137BB450FDD204609F176
S315000049A001024C44FFF7FAFC2DB1204602210C4AC5
S315000049B0FFF784FC044408F10808CCE72DB1204633
S315000049C00221084AFFF77AFC0444A01B02E0404695
S315000049D000E0104607B0BDE8F08F00BFE5FD080017
S315000049E0F6FD0800151E0900144A38B5136804467A
S315000049F015460BB35A681B6801889A4206D11048BF
S31500004A00C1F30B01BDE83840FFF73CBCC1F30B0115
S31500004A1089B211B90B48FFF735FC2B68DA68A2603A
S31500004A205A68DC6001325A6023686FF317332360DB
S31500004A301B0E6FF30713E37038BD00BF800920001B
S31500004A4056FD080088FD080050B1064B1B681A6821
S31500004A50904204D89B680C2202FB0030704700206D
S31500004A60704700BF80092000018910B5082917D8B2
S31500004A70DFE801F00D050505050505050900032A12
S31500004A800BDD002010BD43899A42FADA05E03BB1FE
S31500004A90002AF6D06FF00E0010BD6FF00D0010BDAD
S31500004AA06FF0160010BD00BF1FB50C4641780378A5
S31500004AB0009181780191C278102102922046034A22
S31500004AC0FFF7FCFB204604B010BD00BFD6FD080072
S31500004AD0F8B50188044600228A422FD204EB8206EA
S31500004AE0F3684BB35842184000F052FAC0F11F0C5D
S31500004AF00CEB421704EB8705E86900F035FAF3681A
S31500004B00B0F1010EDEF1000050EB0E0000FA0CFCD5
S31500004B1083EA0C03F360EB6959421940084600F03A
S31500004B2037FAA388C0F11F00013BA380EB6900EBB5
S31500004B3047105940E961F8BD0132CDE74FF0FF302B
S31500004B40F8BD00BF838801F01F0270B5013B4E0916
S31500004B508380044600EB860306F01F0601200D46FF
S31500004B609040DA69AD0A5040D86100F0FDF904EBD7
S31500004B708504D0F1010038BF0020E36800FA06F68C
S31500004B807340E36070BD00BF83884A0970B5013386
S31500004B9000EB820401F01F06838002F01F0201234E
S31500004BA0890AE56903FA06F600EB81003543E561FB
S31500004BB0C16893401943C16070BD00BFB0F90400DD
S31500004BC0704700BF0A6810B5012A01DC002010BD3D
S31500004BD04478A31C9A42F9DB20446FF001031B1BA7
S31500004BE002301344012B0B60F0DD4278023293420F
S31500004BF0ECDB10BD10B501290DDD03784478934236
S31500004C0002D1631C8B4207DBA31C18446FF001031F
S31500004C101B1B1944EFE7002010BD00BF10B51C4652
S31500004C20FFF7E8FF08B9002010BD4378A342FADB7E
S31500004C3010BD00BFF8B50F460E490024002818BF66
S31500004C40014625460C481646FFF71CFBB5420CDA12
S31500004C500A480134795DFFF715FB102C03D108488B
S31500004C600024FFF70FFB0135F0E70548BDE8F840E3
S31500004C70FFF708BBE1C20900FEFD0800F8FD0800C9
S31500004C80652A090010B501240368C3F30B3323B169
S31500004C9018460134FFF7D8FEF6E70C6010BD00BFDA
S31500004CA0F0B52B4F0478034601303E5DDFF8A0C017
S31500004CB006F0200606F0FF05002EF3D12B2C08BFC8
S31500004CC0034605D02D2C08BF034614BF0025012539
S31500004CD062B91A78302A15D15A7802F0DF02582ABA
S31500004CE007BF10220233082201330CE0102A0AD132
S31500004CF01878302807D1587800F0DF00582802D1FC
S31500004D00023300E00A2200201F4601333C781CF8DB
S31500004D10046016F0440F02D19DB1404211E016F036
S31500004D20040F01D0303C03E0B6074CBF573C373C7C
S31500004D309442F1D202FB0044844200D225B12046BF
S31500004D40E2E719B10F60F0BD4FF0FF30F0BD00BFD4
S31500004D505E540800F0B585B0012B06461C4602914C
S31500004D60039219D900254FF0FF37029B03997BB1B7
S31500004D70B7FBF4F202A803FB02556243009103A9B4
S31500004D805242B2FBF4FE04FB1E2200F007F8ECE7E9
S31500004D90B1FBF4F42544356005B0F0BD2DE9F74FBD
S31500004DA01D0C9BB2140C92B203FB02F963436A43D7
S31500004DB0019329F000464FEA03480C9B28F0004770
S31500004DC04FEA024C4FEAD37B2CF0004A37440BEBF8
S31500004DD0D97927F0004609EBD87808EBDC7C5644F5
S31500004DE00CEBD77726F0004A07EBD67623F0004780
S31500004DF0BA44019F120C06EBDA762AF0004A02EB5F
S31500004E00174316F0010F05FB04340CBF4FF0000CDE
S31500004E104FF0004C04EB56064CEA0A0306600B60A2
S31500004E2003B0BDE8F08F00BF38B515461C4663B128
S31500004E30FF2A0AD801B942B9207065701DB12A4609
S31500004E40A01CFFF7ABF902352C44204638BD00BF45
S31500004E50FF2A70B5049E1D4606D8941CB44203DC96
S31500004E60BDE87040FFF7E0BF284670BD2DE9F04170
S31500004E7017461E460C4600EB0108B442C4EB080573
S31500004E8007D3284639463246FFF76AFA20B1013C75
S31500004E90F3E70020BDE8F0812846BDE8F08100BFB9
S31500004EA02DE9F04188B00AB10023137000231C4697
S31500004EB04DF803400433202BFAD1012711F8013BAA
S31500004EC008AD5C0903F01F0605EB840407FA06F635
S31500004ED054F8205C354344F8205C002BEED1016881
S31500004EE001250C460DF1200811F8013B5E0903F07F
S31500004EF01F0708EB860605FA07F756F8206C3742B7
S31500004F0004D0002BEDD12546012610E0202BE8D059
S31500004F10F9E74F090DF1200801F01F0C08EB870790
S31500004F2006FA0CFC57F8207C1CEA070F05D12978F5
S31500004F302B4601350029ECD105E002B111700022A3
S31500004F40013303F8012C03609C4214BF2046002065
S31500004F5008B0BDE8F08100BF002310B1013340085E
S31500004F60FBE7C3F120007047084BC2B282B0995CE0
S31500004F70C0F307229A5C0A44C0F30741000E595C4D
S31500004F80185C0A44104402B0704700BF5E55080022
S31500004F90FFF7E2BF08B500F021F8034608461946B8
S31500004FA0BDE8084000F00CB890E80C001A600268F2
S31500004FB0536070470068704700604060704700BFEC
S31500004FC00B6841600360086003685860704700BF63
S31500004FD0034608461946FFF7F3BF00BF406870470F
S31500004FE008B500F039F828B100210A46BDE80840A6
S31500004FF0FFF756BE08BD00BF37B5154600F02CF8C2
S3150000500080B100240BE0002201A9FFF749FEAC4263
S3150000501009D00198013403782C2B08BF013003789E
S31500005020002BF0D1002003B030BD00BF13B500F057
S3150000503013F870B10024037853B1002201A9FFF7D9
S315000050402FFE0198013403782C2B08BF0130F2E7BC
S31500005050204602B010BD00BF70B504460D4609B922
S31500005060002070BD0846FFF773F906460028F7D002
S3150000507094B1237883B1204629463246FFF77CF85F
S3150000508028B9A35D3D2B02D10136A01970BD14F8D5
S31500005090013B002BFBD1EBE72846BDE870400AF048
S315000050A00DBB00BF036913F4085F0CBF002001208D
S315000050B0704700BF036901F0070123F007030B43A4
S315000050C003617047CB0801F00701012202FA01F1E2
S315000050D0C25C22EA0101C154704700BF038910B5C2
S315000050E001464BB1FFF766FF0446FFF75DFF0B89EC
S315000050F02046013B0B8110BD184610BD024608B57F
S31500005100FFF766FF13890133138108BD08B504490B
S315000051100622FFF731F8D0F1010038BF002008BDA4
S31500005120385C080008B504490622FFF725F8D0F1D7
S31500005130010038BF002008BD445C0800044B1B7802
S31500005140012B02D1002000707047FFF749BF00BF56
S315000051500C082000044B1B78012B02D100200070A4
S315000051607047FFF749BF00BF0C082000044B1B78AF
S31500005170012B02D1002000707047FFF757BF00BF18
S315000051800C082000044B1B78012B02D10020007074
S315000051907047FFF761BF00BF0C08200003460144BB
S315000051A0074810B58B4208D213F8014B5440E4B2BD
S315000051B050F8244084EA1222F4E7104610BD00BFDE
S315000051C03857080003460144054810B58B4204D001
S315000051D013F8014B6240825CF8E7104610BD00BF31
S315000051E0385B0800CB0801F00701C05C084100F0FD
S315000051F0010080F001007047012201F00703C90891
S3150000520002FA03F3405C1840704700BF2DE9F843EB
S3150000521033EA230628BF4FF48056174B0C46DDF8B9
S3150000522020801968994644B152B1A3899A4207D39E
S31500005230D21A238B51F82340F5E72046BDE8F883C0
S315000052400025AEB1A789A168BF1ABE4238BF37464E
S31500005250404611443A46B844FEF7A0FF238BD9F8DE
S315000052600020F61B52F823403D440CB10022E8E72B
S315000052702846BDE8F88300BFCC072000212928D99D
S315000052808389082B0BD1837B1909042901D1C37BA0
S3150000529019E0062919D11B01C17BDBB211E0812B74
S315000052A017D1252915D9038A082B12D1837C190910
S315000052B0042901D1C37C06E0062906D11B01C17C65
S315000052C0DBB243EA11139B0800E0002313700120B0
S315000052D070470020704700BF044B1A680B8B52F8CA
S315000052E023300BB11946F9E708467047CC07200072
S315000052F02DE9F047A0B089469046014620B10278D4
S3150000530012B11948FEF7BEFF002680256C466F468F
S31500005310464520D016F00F0A07D120462946134AE3
S315000053203346FEF7CBFF04442D1A002D08DD204638
S3150000533029460F4A19F80630FEF7C0FF04442D1A15
S31500005340BAF10F0F05D10B4869468025FEF79AFF83
S315000053506C460136DCE7BC4203D006486946FEF7D8
S3150000536091FF20B0BDE8F087EAFD0800EFFD0800D8
S31500005370F8FD080048700900F8B516468E42054645
S315000053800F461A462AD30C46FB08F208D11A012901
S315000053901CD9FF210133D7004FEAC30C0CF1FF3CA7
S315000053A0934202D2E9540133FAE7644505D821460F
S315000053B00134284600F018F8F7E7B74205D8394611
S315000053C00137284600F010F8F7E7F8BD214601340A
S315000053D0284600F009F8B442F8D9F8BD0024FFF7D2
S315000053E0CBFF2746D0E700BFCB0801F0070101221B
S315000053F002FA01F1C25C1143C1547047C0F3C220E6
S31500005400072802D0024B185C70470020704700BF87
S315000054106E5C08000A231438B0FBF3F0C0B2704784
S315000054200023064A995C884201D118467047013329
S31500005430062BF7D14FF0FF30704700BF685C0800BD
S31500005440024608B50846FFF7E5FF101AC0B208BDC8
S3150000545010B51446FFF7F4FF00EB8400C0B210BD90
S3150000546038B50D4611461446FFF7EAFF281A83079A
S3150000547008D11423B4FBF3F48008A04228BF4FF0F0
S31500005480FF3038BD4FF0FF3038BD00BF052802D8C9
S31500005490024B185C70470020704700BF685C08002C
S315000054A02DE9F8430E288CBF4FF440484FF0000812
S315000054B0B1F5C05F48EA010884461FFA88F811D0A2
S315000054C0B1F5005F12D0B1F5205F13D0B1F5805F62
S315000054D002D00020BDE8F88348EA000C1FFA8CF0E1
S315000054E0BDE8F8830C26114C282706E00626104C4A
S315000054F0502702E002260F4CA0272546A946013573
S31500005500614699F800003A46FFF7AAFF002808DB33
S3150000551099F800C048EA0C0848EA002080B2BDE8C5
S31500005520F8832B1BB342E9DBD3E700BF5C5C0800C2
S31500005530685C08005A5C080041F2CE23994203D108
S31500005540431E0D2B03D909E0C82802D906E00E2810
